{
  "address": "0x7F2D1823e7754A43eEC0024dD55018664Fdec638",
  "abi": [
    {
      "inputs": [
        {
          "internalType": "address",
          "name": "registry",
          "type": "address"
        },
        {
          "internalType": "address",
          "name": "vrfCoordinatorV2",
          "type": "address"
        },
        {
          "internalType": "uint64",
          "name": "subscriptionId",
          "type": "uint64"
        },
        {
          "internalType": "bytes32",
          "name": "gasLane",
          "type": "bytes32"
        },
        {
          "internalType": "uint32",
          "name": "callbackGasLimit",
          "type": "uint32"
        }
      ],
      "stateMutability": "nonpayable",
      "type": "constructor"
    },
    {
      "inputs": [],
      "name": "NFTNotAvailable",
      "type": "error"
    },
    {
      "inputs": [],
      "name": "NeedMoreETH",
      "type": "error"
    },
    {
      "inputs": [],
      "name": "NftContractNotExists",
      "type": "error"
    },
    {
      "inputs": [
        {
          "internalType": "address",
          "name": "have",
          "type": "address"
        },
        {
          "internalType": "address",
          "name": "want",
          "type": "address"
        }
      ],
      "name": "OnlyCoordinatorCanFulfill",
      "type": "error"
    },
    {
      "inputs": [],
      "name": "WithdrawFailed",
      "type": "error"
    },
    {
      "anonymous": false,
      "inputs": [
        {
          "indexed": false,
          "internalType": "address",
          "name": "sosolNFT",
          "type": "address"
        },
        {
          "indexed": false,
          "internalType": "address",
          "name": "owner",
          "type": "address"
        }
      ],
      "name": "NFTCreated",
      "type": "event"
    },
    {
      "anonymous": false,
      "inputs": [
        {
          "indexed": false,
          "internalType": "address",
          "name": "minter",
          "type": "address"
        },
        {
          "indexed": false,
          "internalType": "address",
          "name": "nftContract",
          "type": "address"
        }
      ],
      "name": "NftMintRequested",
      "type": "event"
    },
    {
      "anonymous": false,
      "inputs": [
        {
          "indexed": false,
          "internalType": "uint256",
          "name": "requestId",
          "type": "uint256"
        },
        {
          "indexed": false,
          "internalType": "address",
          "name": "requester",
          "type": "address"
        }
      ],
      "name": "NftRequested",
      "type": "event"
    },
    {
      "inputs": [
        {
          "internalType": "address",
          "name": "x",
          "type": "address"
        }
      ],
      "name": "_addressToString",
      "outputs": [
        {
          "internalType": "string",
          "name": "",
          "type": "string"
        }
      ],
      "stateMutability": "pure",
      "type": "function"
    },
    {
      "inputs": [
        {
          "internalType": "bytes1",
          "name": "b",
          "type": "bytes1"
        }
      ],
      "name": "char",
      "outputs": [
        {
          "internalType": "bytes1",
          "name": "c",
          "type": "bytes1"
        }
      ],
      "stateMutability": "pure",
      "type": "function"
    },
    {
      "inputs": [
        {
          "internalType": "uint256",
          "name": "videoID",
          "type": "uint256"
        },
        {
          "internalType": "string",
          "name": "nftName",
          "type": "string"
        },
        {
          "internalType": "string",
          "name": "nftSymbol",
          "type": "string"
        },
        {
          "internalType": "uint256",
          "name": "mintFee",
          "type": "uint256"
        },
        {
          "internalType": "uint256[3]",
          "name": "sosolTokenRarity",
          "type": "uint256[3]"
        },
        {
          "internalType": "string[3]",
          "name": "sosolTokenUris",
          "type": "string[3]"
        },
        {
          "internalType": "uint256",
          "name": "sosolTotalToken",
          "type": "uint256"
        }
      ],
      "name": "createNFT",
      "outputs": [],
      "stateMutability": "nonpayable",
      "type": "function"
    },
    {
      "inputs": [
        {
          "internalType": "address",
          "name": "nftContract",
          "type": "address"
        }
      ],
      "name": "getNftContractOwner",
      "outputs": [
        {
          "internalType": "address",
          "name": "",
          "type": "address"
        }
      ],
      "stateMutability": "view",
      "type": "function"
    },
    {
      "inputs": [
        {
          "internalType": "address",
          "name": "nftContractOwner",
          "type": "address"
        }
      ],
      "name": "getNftContractOwnerBalance",
      "outputs": [
        {
          "internalType": "uint256",
          "name": "",
          "type": "uint256"
        }
      ],
      "stateMutability": "view",
      "type": "function"
    },
    {
      "inputs": [
        {
          "internalType": "address",
          "name": "nftContract",
          "type": "address"
        }
      ],
      "name": "getNftTotalToken",
      "outputs": [
        {
          "internalType": "uint256",
          "name": "",
          "type": "uint256"
        }
      ],
      "stateMutability": "view",
      "type": "function"
    },
    {
      "inputs": [],
      "name": "getTableId",
      "outputs": [
        {
          "internalType": "uint256",
          "name": "",
          "type": "uint256"
        }
      ],
      "stateMutability": "view",
      "type": "function"
    },
    {
      "inputs": [],
      "name": "getTableName",
      "outputs": [
        {
          "internalType": "string",
          "name": "",
          "type": "string"
        }
      ],
      "stateMutability": "view",
      "type": "function"
    },
    {
      "inputs": [
        {
          "internalType": "address",
          "name": "",
          "type": "address"
        },
        {
          "internalType": "address",
          "name": "",
          "type": "address"
        },
        {
          "internalType": "uint256",
          "name": "",
          "type": "uint256"
        },
        {
          "internalType": "bytes",
          "name": "",
          "type": "bytes"
        }
      ],
      "name": "onERC721Received",
      "outputs": [
        {
          "internalType": "bytes4",
          "name": "",
          "type": "bytes4"
        }
      ],
      "stateMutability": "nonpayable",
      "type": "function"
    },
    {
      "inputs": [
        {
          "internalType": "uint256",
          "name": "requestId",
          "type": "uint256"
        },
        {
          "internalType": "uint256[]",
          "name": "randomWords",
          "type": "uint256[]"
        }
      ],
      "name": "rawFulfillRandomWords",
      "outputs": [],
      "stateMutability": "nonpayable",
      "type": "function"
    },
    {
      "inputs": [
        {
          "internalType": "address",
          "name": "nftContractAddress",
          "type": "address"
        }
      ],
      "name": "requestNft",
      "outputs": [
        {
          "internalType": "uint256",
          "name": "requestId",
          "type": "uint256"
        }
      ],
      "stateMutability": "payable",
      "type": "function"
    },
    {
      "inputs": [],
      "name": "withdraw",
      "outputs": [],
      "stateMutability": "nonpayable",
      "type": "function"
    }
  ],
  "transactionHash": "0x28ac4637d8779d6c20053b2a1e2573a0c14483a411fbf240554a3716c4ef44f9",
  "args": [
    "0x4b48841d4b32c4650e4abc117a03fe8b51f38f68",
    "0x7a1BaC17Ccc5b313516C5E16fb24f7659aA5ebed",
    "1919",
    "0x4b09e658ed251bcafeebbc69400383d49f344ace09b9576fe248bb02c003fe9f",
    "500000"
  ],
  "numDeployments": 1,
  "solcInputHash": "ee1db10d854d37d4921845e0b6158827",
  "bytecode": "0x610160604052600661012081905265736f736f6c3360d01b6101409081526200002c9160029190620002e9565b503480156200003a57600080fd5b5060405162003f2738038062003f278339810160408190526200005d91620003ac565b6001600160a01b03848116608052600380546001600160a01b031916918716918217905585908190633a9151b0306002620000a446620001cc602090811b6200072b17901c565b604051602001620000b792919062000540565b6040516020818303038152906040526040518363ffffffff1660e01b8152600401620000e592919062000614565b6020604051808303816000875af115801562000105573d6000803e3d6000fd5b505050506040513d601f19601f820116820180604052508101906200012b919062000658565b60008190555060026200014946620001cc60201b6200072b1760201c565b62000161600054620001cc60201b6200072b1760201c565b604051602001620001759392919062000672565b604051602081830303815290604052600190805190602001906200019b929190620002e9565b5050506001600160a01b0390931660a05260e0526001600160401b031660c05263ffffffff166101005250620007a0565b606081620001f15750506040805180820190915260018152600360fc1b602082015290565b8160005b81156200022157806200020881620006dd565b9150620002199050600a8362000711565b9150620001f5565b6000816001600160401b038111156200023e576200023e62000728565b6040519080825280601f01601f19166020018201604052801562000269576020820181803683370190505b5090505b8415620002e157620002816001836200073e565b915062000290600a8662000758565b6200029d9060306200076f565b60f81b818381518110620002b557620002b56200078a565b60200101906001600160f81b031916908160001a905350620002d9600a8662000711565b94506200026d565b949350505050565b828054620002f7906200042e565b90600052602060002090601f0160209004810192826200031b576000855562000366565b82601f106200033657805160ff191683800117855562000366565b8280016001018555821562000366579182015b828111156200036657825182559160200191906001019062000349565b506200037492915062000378565b5090565b5b8082111562000374576000815560010162000379565b80516001600160a01b0381168114620003a757600080fd5b919050565b600080600080600060a08688031215620003c557600080fd5b620003d0866200038f565b9450620003e0602087016200038f565b60408701519094506001600160401b0381168114620003fe57600080fd5b60608701516080880151919450925063ffffffff811681146200042057600080fd5b809150509295509295909350565b600181811c908216806200044357607f821691505b602082108114156200046557634e487b7160e01b600052602260045260246000fd5b50919050565b8054600090600181811c90808316806200048657607f831692505b6020808410821415620004a957634e487b7160e01b600052602260045260246000fd5b818015620004c05760018114620004d25762000501565b60ff1986168952848901965062000501565b60008881526020902060005b86811015620004f95781548b820152908501908301620004de565b505084890196505b50505050505092915050565b60005b838110156200052a57818101518382015260200162000510565b838111156200053a576000848401525b50505050565b6c021a922a0aa22902a20a126229609d1b8152600062000564600d8301856200046b565b605f60f81b81528351620005808160018401602088016200050d565b7f2028696420696e7465676572207072696d617279206b65792c20757365724164600192909101918201527f64726573732074657874204e4f54204e554c4c2c206e6674416464726573732060218201527f74657874204e4f54204e554c4c2c20766964656f494420696e7465676572204e6041820152684f54204e554c4c293b60b81b6061820152606a01949350505050565b60018060a01b03831681526040602082015260008251806040840152620006438160608501602087016200050d565b601f01601f1916919091016060019392505050565b6000602082840312156200066b57600080fd5b5051919050565b60006200068082866200046b565b605f60f81b80825285516200069d816001850160208a016200050d565b60019201918201528351620006ba8160028401602088016200050d565b0160020195945050505050565b634e487b7160e01b600052601160045260246000fd5b6000600019821415620006f457620006f4620006c7565b5060010190565b634e487b7160e01b600052601260045260246000fd5b600082620007235762000723620006fb565b500490565b634e487b7160e01b600052604160045260246000fd5b600082821015620007535762000753620006c7565b500390565b6000826200076a576200076a620006fb565b500690565b60008219821115620007855762000785620006c7565b500190565b634e487b7160e01b600052603260045260246000fd5b60805160a05160c05160e0516101005161373b620007ec6000396000610659015260006105f8015260006106260152600061068a0152600081816102f70152610320015261373b6000f3fe608060405260043610620000a45760003560e01c80630b30f7bb14620000a9578063150b7a0214620000f65780631fe543e3146200013f5780633ccfd60b14620001665780635d5a33a2146200017e57806369f9ad2f14620001a557806374fad9b714620001e457806388e4f1cb146200023a57806388e9a48a1462000251578063bca89cc31462000276578063c75ee78414620002b0578063c7dc7e6214620002c7575b600080fd5b348015620000b657600080fd5b50620000e3620000c836600462000df4565b6001600160a01b031660009081526007602052604090205490565b6040519081526020015b60405180910390f35b3480156200010357600080fd5b50620001256200011536600462000eea565b630a85bd0160e11b949350505050565b6040516001600160e01b03199091168152602001620000ed565b3480156200014c57600080fd5b50620001646200015e36600462000f6e565b620002ec565b005b3480156200017357600080fd5b506200016462000375565b3480156200018b57600080fd5b506200019662000382565b604051620000ed91906200108b565b348015620001b257600080fd5b50620001ca620001c4366004620010a0565b6200041c565b6040516001600160f81b03199091168152602001620000ed565b348015620001f157600080fd5b50620002216200020336600462000df4565b6001600160a01b039081166000908152600460205260409020541690565b6040516001600160a01b039091168152602001620000ed565b3480156200024757600080fd5b50600054620000e3565b3480156200025e57600080fd5b50620001966200027036600462000df4565b6200045c565b3480156200028357600080fd5b50620000e36200029536600462000df4565b6001600160a01b031660009081526006602052604090205490565b620000e3620002c136600462000df4565b620005e9565b348015620002d457600080fd5b5062000164620002e63660046200116a565b62000710565b336001600160a01b037f000000000000000000000000000000000000000000000000000000000000000016146200036557337f000000000000000000000000000000000000000000000000000000000000000060405163073e64fd60e21b81526004016200035c9291906200126c565b60405180910390fd5b62000371828262000848565b5050565b620003803362000854565b565b606060018054620003939062001286565b80601f0160208091040260200160405190810160405280929190818152602001828054620003c19062001286565b8015620004125780601f10620003e65761010080835404028352916020019162000412565b820191906000526020600020905b815481529060010190602001808311620003f457829003601f168201915b5050505050905090565b6000600a60f883901c101562000446576200043d60f883901c6030620012d9565b60f81b92915050565b6200043d60f883901c6057620012d9565b919050565b60408051602880825260608281019093526000919060208201818036833701905050905060005b6014811015620005be5760006200049c82601362001301565b620004a99060086200131b565b620004b69060026200143c565b620004cb906001600160a01b03871662001460565b60f81b9050600060108260f81c620004e4919062001477565b60f81b905060008160f81c6010620004fd91906200149c565b8360f81c6200050d9190620014c0565b60f81b90506200051d826200041c565b856200052b8660026200131b565b815181106200053e576200053e620014e6565b60200101906001600160f81b031916908160001a90535062000560816200041c565b856200056e8660026200131b565b6200057b906001620014fc565b815181106200058e576200058e620014e6565b60200101906001600160f81b031916908160001a9053505050508080620005b59062001517565b91505062000483565b5080604051602001620005d2919062001553565b604051602081830303815290604052915050919050565b6040516305d3b1d360e41b81527f000000000000000000000000000000000000000000000000000000000000000060048201526001600160401b037f00000000000000000000000000000000000000000000000000000000000000001660248201526003604482015263ffffffff7f0000000000000000000000000000000000000000000000000000000000000000166064820152600160848201526000907f00000000000000000000000000000000000000000000000000000000000000006001600160a01b031690635d3b1d309060a4016020604051808303816000875af1158015620006dc573d6000803e3d6000fd5b505050506040513d601f19601f820116820180604052508101906200070291906200157f565b905062000457828262000904565b62000722338888888888888862000ac1565b50505050505050565b606081620007505750506040805180820190915260018152600360fc1b602082015290565b8160005b8115620007805780620007678162001517565b9150620007789050600a8362001460565b915062000754565b6000816001600160401b038111156200079d576200079d62000e19565b6040519080825280601f01601f191660200182016040528015620007c8576020820181803683370190505b5090505b84156200084057620007e060018362001301565b9150620007ef600a8662001599565b620007fc906030620014fc565b60f81b818381518110620008145762000814620014e6565b60200101906001600160f81b031916908160001a90535062000838600a8662001460565b9450620007cc565b949350505050565b62000371828262000b96565b6001600160a01b0381166000908152600660205260409020546200087757600080fd5b6001600160a01b038116600081815260066020526040808220805490839055905190929083908381818185875af1925050503d8060008114620008d7576040519150601f19603f3d011682016040523d82523d6000602084013e620008dc565b606091505b5050905080620008ff57604051631d42c86760e21b815260040160405180910390fd5b505050565b6001600160a01b03828116600090815260046020526040902054166200093d57604051639ac95c8560e01b815260040160405180910390fd5b6000829050806001600160a01b0316637a5caab36040518163ffffffff1660e01b8152600401602060405180830381865afa15801562000981573d6000803e3d6000fd5b505050506040513d601f19601f82011682018060405250810190620009a791906200157f565b341015620009c857604051633b7f4ae160e21b815260040160405180910390fd5b6001600160a01b038316600090815260076020526040902054620009ff5760405163314a94b160e21b815260040160405180910390fd5b6001600160a01b038316600090815260076020526040812080546001929062000a2a90849062001301565b9091555050604080518082018252338082526001600160a01b038681166020808501918252600088815260058252869020945185549084166001600160a01b031991821617865591516001909501805495909316949091169390931790558251858152918201527ff873236e6cc0ecc5be1a9a35c95ee5b8d1ac4cc7bfef0cc5060391d6cc98e26b910160405180910390a1505050565b600086868686868660405162000ad79062000dce565b62000ae896959493929190620015b0565b604051809103906000f08015801562000b05573d6000803e3d6000fd5b506001600160a01b0381811660009081526007602090815260408083208790556004909152902080546001600160a01b031916918c16919091179055905062000b5089828a62000d1d565b7fe4944a5f0bf5ee82c3c6769e53000a678b52be77b461a2e8f7b3434eff94670e818a60405162000b839291906200126c565b60405180910390a1505050505050505050565b6000828152600560205260408120805460019091015483516001600160a01b03928316939290911691829182916340c10f19918691889162000bdc5762000bdc620014e6565b60200260200101516040518363ffffffff1660e01b815260040162000c169291906001600160a01b03929092168252602082015260400190565b600060405180830381600087803b15801562000c3157600080fd5b505af115801562000c46573d6000803e3d6000fd5b50505050806001600160a01b0316637a5caab36040518163ffffffff1660e01b8152600401602060405180830381865afa15801562000c89573d6000803e3d6000fd5b505050506040513d601f19601f8201168201806040525081019062000caf91906200157f565b6001600160a01b0380841660009081526004602090815260408083205490931682526006905281902091909155517f3bcfcfcdfd0ae90e20ca88989406bac380d49b0e6051a0acf56959587b2abd2a9062000d0e90859085906200126c565b60405180910390a15050505050565b6003546000546001600160a01b039091169063eaf5d04e903090600162000d44886200045c565b62000d4f886200045c565b62000d5a886200072b565b60405160200162000d6f949392919062001674565b6040516020818303038152906040526040518463ffffffff1660e01b815260040162000d9e93929190620017d0565b600060405180830381600087803b15801562000db957600080fd5b505af115801562000722573d6000803e3d6000fd5b611f03806200180383390190565b80356001600160a01b03811681146200045757600080fd5b60006020828403121562000e0757600080fd5b62000e128262000ddc565b9392505050565b634e487b7160e01b600052604160045260246000fd5b604051606081016001600160401b038111828210171562000e545762000e5462000e19565b60405290565b604051601f8201601f191681016001600160401b038111828210171562000e855762000e8562000e19565b604052919050565b60006001600160401b0383111562000ea95762000ea962000e19565b62000ebe601f8401601f191660200162000e5a565b905082815283838301111562000ed357600080fd5b828260208301376000602084830101529392505050565b6000806000806080858703121562000f0157600080fd5b62000f0c8562000ddc565b935062000f1c6020860162000ddc565b92506040850135915060608501356001600160401b0381111562000f3f57600080fd5b8501601f8101871362000f5157600080fd5b62000f628782356020840162000e8d565b91505092959194509250565b6000806040838503121562000f8257600080fd5b823591506020808401356001600160401b038082111562000fa257600080fd5b818601915086601f83011262000fb757600080fd5b81358181111562000fcc5762000fcc62000e19565b8060051b915062000fdf84830162000e5a565b818152918301840191848101908984111562000ffa57600080fd5b938501935b838510156200101a5784358252938501939085019062000fff565b8096505050505050509250929050565b60005b83811015620010475781810151838201526020016200102d565b8381111562001057576000848401525b50505050565b60008151808452620010778160208601602086016200102a565b601f01601f19169290920160200192915050565b60208152600062000e1260208301846200105d565b600060208284031215620010b357600080fd5b81356001600160f81b03198116811462000e1257600080fd5b600082601f830112620010de57600080fd5b62000e128383356020850162000e8d565b600082601f8301126200110157600080fd5b6200110b62000e2f565b8060608401858111156200111e57600080fd5b845b818110156200115f5780356001600160401b03811115620011415760008081fd5b6200114f88828901620010cc565b8552506020938401930162001120565b509095945050505050565b6000806000806000806000610120888a0312156200118757600080fd5b873596506020808901356001600160401b0380821115620011a757600080fd5b620011b58c838d01620010cc565b985060408b0135915080821115620011cc57600080fd5b620011da8c838d01620010cc565b975060608b013596508b609f8c0112620011f357600080fd5b620011fd62000e2f565b91508160e08c018d8111156200121257600080fd5b60808d015b8181101562001230578035855293850193850162001217565b50909650359250808311156200124557600080fd5b5050620012558a828b01620010ef565b925050610100880135905092959891949750929550565b6001600160a01b0392831681529116602082015260400190565b600181811c908216806200129b57607f821691505b60208210811415620012bd57634e487b7160e01b600052602260045260246000fd5b50919050565b634e487b7160e01b600052601160045260246000fd5b600060ff821660ff84168060ff03821115620012f957620012f9620012c3565b019392505050565b600082821015620013165762001316620012c3565b500390565b6000816000190483118215151615620013385762001338620012c3565b500290565b600181815b808511156200137e578160001904821115620013625762001362620012c3565b808516156200137057918102915b93841c939080029062001342565b509250929050565b600082620013975750600162001436565b81620013a65750600062001436565b8160018114620013bf5760028114620013ca57620013ea565b600191505062001436565b60ff841115620013de57620013de620012c3565b50506001821b62001436565b5060208310610133831016604e8410600b84101617156200140f575081810a62001436565b6200141b83836200133d565b8060001904821115620014325762001432620012c3565b0290505b92915050565b600062000e12838362001386565b634e487b7160e01b600052601260045260246000fd5b6000826200147257620014726200144a565b500490565b600060ff8316806200148d576200148d6200144a565b8060ff84160491505092915050565b600060ff821660ff84168160ff0481118215151615620014325762001432620012c3565b600060ff821660ff841680821015620014dd57620014dd620012c3565b90039392505050565b634e487b7160e01b600052603260045260246000fd5b60008219821115620015125762001512620012c3565b500190565b60006000198214156200152e576200152e620012c3565b5060010190565b60008151620015498185602086016200102a565b9290920192915050565b61060f60f31b815260008251620015728160028501602087016200102a565b9190910160020192915050565b6000602082840312156200159257600080fd5b5051919050565b600082620015ab57620015ab6200144a565b500690565b6000610100808352620015c68184018a6200105d565b9050602083820381850152620015dd828a6200105d565b9150876040850152606084018760005b60038110156200160c57815183529183019190830190600101620015ed565b50505083820360c085015281606081018760005b60038110156200164f5785830384526200163c8383516200105d565b9385019392509084019060010162001620565b5050809450505050508260e0830152979650505050505050565b62272c2760e81b9052565b6b024a729a2a92a1024a72a27960a51b81526000600c6000875481600182811c915080831680620016a657607f831692505b6020808410821415620016c757634e487b7160e01b86526022600452602486fd5b818015620016de5760018114620016f45762001727565b60ff1986168a890152848a018801965062001727565b60008e81526020902060005b868110156200171d5781548c82018b015290850190830162001700565b505087858b010196505b50507f202875736572416464726573732c206e6674416464726573732c20766964656f8552506b092885240ac8298aa8aa640560a31b6020850152602c8401602760f81b815294506200177d8186018b62001535565b9450505050506200178e8162001669565b6200179d600382018662001535565b9050620017aa8162001669565b620017b9600382018562001535565b6227293b60e81b8152600301979650505050505050565b60018060a01b0384168152826020820152606060408201526000620017f960608301846200105d565b9594505050505056fe60a06040523480156200001157600080fd5b5060405162001f0338038062001f03833981016040819052620000349162000436565b8551869086906200004d9060009060208501906200010c565b508051620000639060019060208401906200010c565b505050620000806200007a620000b660201b60201c565b620000ba565b6080849052600c81905562000099600b8460036200019b565b50620000a9600a836003620001d8565b5050505050505062000568565b3390565b600780546001600160a01b038381166001600160a01b0319831681179093556040519116919082907f8be0079c531659141344cd1fd0a4f28419497f9722a3daafe3b4186f6b6457e090600090a35050565b8280546200011a906200052b565b90600052602060002090601f0160209004810192826200013e576000855562000189565b82601f106200015957805160ff191683800117855562000189565b8280016001018555821562000189579182015b82811115620001895782518255916020019190600101906200016c565b506200019792915062000238565b5090565b828054828255906000526020600020908101928215620001895791602002820182811115620001895782518255916020019190600101906200016c565b8280548282559060005260206000209081019282156200022a579160200282015b828111156200022a5782518051620002199184916020909101906200010c565b5091602001919060010190620001f9565b50620001979291506200024f565b5b8082111562000197576000815560010162000239565b808211156200019757600062000266828262000270565b506001016200024f565b5080546200027e906200052b565b6000825580601f106200028f575050565b601f016020900490600052602060002090810190620002af919062000238565b50565b634e487b7160e01b600052604160045260246000fd5b604051606081016001600160401b0381118282101715620002ed57620002ed620002b2565b60405290565b604051601f8201601f191681016001600160401b03811182821017156200031e576200031e620002b2565b604052919050565b600082601f8301126200033857600080fd5b81516001600160401b03811115620003545762000354620002b2565b60206200036a601f8301601f19168201620002f3565b82815285828487010111156200037f57600080fd5b60005b838110156200039f57858101830151828201840152820162000382565b83811115620003b15760008385840101525b5095945050505050565b600082601f830112620003cd57600080fd5b620003d7620002c8565b806060840185811115620003ea57600080fd5b845b818110156200042b5780516001600160401b038111156200040d5760008081fd5b6200041b8882890162000326565b85525060209384019301620003ec565b509095945050505050565b60008060008060008061010087890312156200045157600080fd5b86516001600160401b03808211156200046957600080fd5b620004778a838b0162000326565b97506020915081890151818111156200048f57600080fd5b6200049d8b828c0162000326565b9750506040890151955089607f8a0112620004b757600080fd5b620004c1620002c8565b8060c08b018c811115620004d457600080fd5b60608c015b81811015620004f25780518452928501928501620004d9565b5051909650925050808211156200050857600080fd5b506200051789828a01620003bb565b92505060e087015190509295509295509295565b600181811c908216806200054057607f821691505b602082108114156200056257634e487b7160e01b600052602260045260246000fd5b50919050565b60805161197f62000584600039600061022d015261197f6000f3fe608060405234801561001057600080fd5b506004361061011d5760003560e01c806301ffc9a7146101225780630684908f1461014a57806306fdde031461016a578063081812fc14610172578063095ea7b31461019d57806323b872dd146101b257806340c10f19146101c557806342842e0e146101d85780636352211e146101eb5780636e02007d146101fe57806370a0823114610210578063715018a6146102235780637a5caab31461022b5780638da5cb5b146102515780639336b5dd1461025957806395d89b41146102615780639fd4474b14610269578063a22cb4651461027c578063b88d4fde1461028f578063c87b56dd146102a2578063e89e106a146102b5578063e985e9c5146102be578063f2fde38b146102d1575b600080fd5b610135610130366004611441565b6102e4565b60405190151581526020015b60405180910390f35b61015d61015836600461145e565b610336565b60405161014191906114cf565b61015d6103e5565b61018561018036600461145e565b610477565b6040516001600160a01b039091168152602001610141565b6101b06101ab3660046114fe565b61049e565b005b6101b06101c0366004611528565b6105b9565b6101b06101d33660046114fe565b6105ea565b6101b06101e6366004611528565b6107b6565b6101856101f936600461145e565b6107d1565b6008545b604051908152602001610141565b61020261021e366004611564565b610806565b6101b061088c565b7f0000000000000000000000000000000000000000000000000000000000000000610202565b6101856108a0565b600c54610202565b61015d6108af565b61020261027736600461145e565b6108be565b6101b061028a36600461157f565b6108e5565b6101b061029d3660046115d1565b6108f4565b61015d6102b036600461145e565b61092c565b61020260095481565b6101356102cc3660046116ac565b610a3d565b6101b06102df366004611564565b610a6b565b60006001600160e01b031982166380ac58cd60e01b148061031557506001600160e01b03198216635b5e139f60e01b145b8061033057506301ffc9a760e01b6001600160e01b03198316145b92915050565b6060600a828154811061034b5761034b6116df565b906000526020600020018054610360906116f5565b80601f016020809104026020016040519081016040528092919081815260200182805461038c906116f5565b80156103d95780601f106103ae576101008083540402835291602001916103d9565b820191906000526020600020905b8154815290600101906020018083116103bc57829003601f168201915b50505050509050919050565b6060600080546103f4906116f5565b80601f0160208091040260200160405190810160405280929190818152602001828054610420906116f5565b801561046d5780601f106104425761010080835404028352916020019161046d565b820191906000526020600020905b81548152906001019060200180831161045057829003601f168201915b5050505050905090565b600061048282610ae4565b506000908152600460205260409020546001600160a01b031690565b60006104a9826107d1565b9050806001600160a01b0316836001600160a01b0316141561051c5760405162461bcd60e51b815260206004820152602160248201527f4552433732313a20617070726f76616c20746f2063757272656e74206f776e656044820152603960f91b60648201526084015b60405180910390fd5b336001600160a01b038216148061053857506105388133610a3d565b6105aa5760405162461bcd60e51b815260206004820152603e60248201527f4552433732313a20617070726f76652063616c6c6572206973206e6f7420746f60448201527f6b656e206f776e6572206e6f7220617070726f76656420666f7220616c6c00006064820152608401610513565b6105b48383610b09565b505050565b6105c33382610b77565b6105df5760405162461bcd60e51b815260040161051390611730565b6105b4838383610bd5565b6105f2610d5f565b6001600c60008282546106059190611794565b90915550506008546106188160016117ab565b60085560006106286064846117d9565b90506000600b600081548110610640576106406116df565b906000526020600020015482101561065a575060006106b5565b600b60018154811061066e5761066e6116df565b9060005260206000200154600b60008154811061068d5761068d6116df565b90600052602060002001546106a291906117ab565b8210156106b1575060016106b5565b5060025b6106bf8584610dbe565b61076e83600a83815481106106d6576106d66116df565b9060005260206000200180546106eb906116f5565b80601f0160208091040260200160405190810160405280929190818152602001828054610717906116f5565b80156107645780601f1061073957610100808354040283529160200191610764565b820191906000526020600020905b81548152906001019060200180831161074757829003601f168201915b5050505050610dd8565b604080518281526001600160a01b03871660208201527f769eff512f395b679667e0062a0e31dad5d22dbc7e6b87f16c3de7e85e663460910160405180910390a15050505050565b6105b4838383604051806020016040528060008152506108f4565b6000818152600260205260408120546001600160a01b0316806103305760405162461bcd60e51b8152600401610513906117ed565b60006001600160a01b0382166108705760405162461bcd60e51b815260206004820152602960248201527f4552433732313a2061646472657373207a65726f206973206e6f7420612076616044820152683634b21037bbb732b960b91b6064820152608401610513565b506001600160a01b031660009081526003602052604090205490565b610894610d5f565b61089e6000610e63565b565b6007546001600160a01b031690565b6060600180546103f4906116f5565b6000600b82815481106108d3576108d36116df565b90600052602060002001549050919050565b6108f0338383610eb5565b5050565b6108fe3383610b77565b61091a5760405162461bcd60e51b815260040161051390611730565b61092684848484610f80565b50505050565b606061093782610ae4565b60008281526006602052604081208054610950906116f5565b80601f016020809104026020016040519081016040528092919081815260200182805461097c906116f5565b80156109c95780601f1061099e576101008083540402835291602001916109c9565b820191906000526020600020905b8154815290600101906020018083116109ac57829003601f168201915b5050505050905060006109e760408051602081019091526000815290565b90508051600014156109fa575092915050565b815115610a2c578082604051602001610a1492919061181f565b60405160208183030381529060405292505050919050565b610a3584610fb3565b949350505050565b6001600160a01b03918216600090815260056020908152604080832093909416825291909152205460ff1690565b610a73610d5f565b6001600160a01b038116610ad85760405162461bcd60e51b815260206004820152602660248201527f4f776e61626c653a206e6577206f776e657220697320746865207a65726f206160448201526564647265737360d01b6064820152608401610513565b610ae181610e63565b50565b610aed81611027565b610ae15760405162461bcd60e51b8152600401610513906117ed565b600081815260046020526040902080546001600160a01b0319166001600160a01b0384169081179091558190610b3e826107d1565b6001600160a01b03167f8c5be1e5ebec7d5bd14f71427d1e84f3dd0314c0f7b2291e5b200ac8c7c3b92560405160405180910390a45050565b600080610b83836107d1565b9050806001600160a01b0316846001600160a01b03161480610baa5750610baa8185610a3d565b80610a355750836001600160a01b0316610bc384610477565b6001600160a01b031614949350505050565b826001600160a01b0316610be8826107d1565b6001600160a01b031614610c4c5760405162461bcd60e51b815260206004820152602560248201527f4552433732313a207472616e736665722066726f6d20696e636f72726563742060448201526437bbb732b960d91b6064820152608401610513565b6001600160a01b038216610cae5760405162461bcd60e51b8152602060048201526024808201527f4552433732313a207472616e7366657220746f20746865207a65726f206164646044820152637265737360e01b6064820152608401610513565b610cb9600082610b09565b6001600160a01b0383166000908152600360205260408120805460019290610ce2908490611794565b90915550506001600160a01b0382166000908152600360205260408120805460019290610d109084906117ab565b909155505060008181526002602052604080822080546001600160a01b0319166001600160a01b03868116918217909255915184939187169160008051602061192a83398151915291a4505050565b33610d686108a0565b6001600160a01b03161461089e5760405162461bcd60e51b815260206004820181905260248201527f4f776e61626c653a2063616c6c6572206973206e6f7420746865206f776e65726044820152606401610513565b6108f0828260405180602001604052806000815250611044565b610de182611027565b610e445760405162461bcd60e51b815260206004820152602e60248201527f45524337323155524953746f726167653a2055524920736574206f66206e6f6e60448201526d32bc34b9ba32b73a103a37b5b2b760911b6064820152608401610513565b600082815260066020908152604090912082516105b492840190611392565b600780546001600160a01b038381166001600160a01b0319831681179093556040519116919082907f8be0079c531659141344cd1fd0a4f28419497f9722a3daafe3b4186f6b6457e090600090a35050565b816001600160a01b0316836001600160a01b03161415610f135760405162461bcd60e51b815260206004820152601960248201527822a9219b99189d1030b8383937bb32903a379031b0b63632b960391b6044820152606401610513565b6001600160a01b03838116600081815260056020908152604080832094871680845294825291829020805460ff191686151590811790915591519182527f17307eab39ab6107e8899845ad3d59bd9653f200f220920489ca2b5937696c31910160405180910390a3505050565b610f8b848484610bd5565b610f9784848484611077565b6109265760405162461bcd60e51b81526004016105139061184e565b6060610fbe82610ae4565b6000610fd560408051602081019091526000815290565b90506000815111610ff55760405180602001604052806000815250611020565b80610fff84611175565b60405160200161101092919061181f565b6040516020818303038152906040525b9392505050565b6000908152600260205260409020546001600160a01b0316151590565b61104e8383611272565b61105b6000848484611077565b6105b45760405162461bcd60e51b81526004016105139061184e565b60006001600160a01b0384163b1561116a57604051630a85bd0160e11b81526001600160a01b0385169063150b7a02906110bb9033908990889088906004016118a0565b6020604051808303816000875af19250505080156110f6575060408051601f3d908101601f191682019092526110f3918101906118dd565b60015b611150573d808015611124576040519150601f19603f3d011682016040523d82523d6000602084013e611129565b606091505b5080516111485760405162461bcd60e51b81526004016105139061184e565b805181602001fd5b6001600160e01b031916630a85bd0160e11b149050610a35565b506001949350505050565b6060816111995750506040805180820190915260018152600360fc1b602082015290565b8160005b81156111c357806111ad816118fa565b91506111bc9050600a83611915565b915061119d565b6000816001600160401b038111156111dd576111dd6115bb565b6040519080825280601f01601f191660200182016040528015611207576020820181803683370190505b5090505b8415610a355761121c600183611794565b9150611229600a866117d9565b6112349060306117ab565b60f81b818381518110611249576112496116df565b60200101906001600160f81b031916908160001a90535061126b600a86611915565b945061120b565b6001600160a01b0382166112c85760405162461bcd60e51b815260206004820181905260248201527f4552433732313a206d696e7420746f20746865207a65726f20616464726573736044820152606401610513565b6112d181611027565b1561131d5760405162461bcd60e51b815260206004820152601c60248201527b115490cdcc8c4e881d1bdad95b88185b1c9958591e481b5a5b9d195960221b6044820152606401610513565b6001600160a01b03821660009081526003602052604081208054600192906113469084906117ab565b909155505060008181526002602052604080822080546001600160a01b0319166001600160a01b038616908117909155905183929060008051602061192a833981519152908290a45050565b82805461139e906116f5565b90600052602060002090601f0160209004810192826113c05760008555611406565b82601f106113d957805160ff1916838001178555611406565b82800160010185558215611406579182015b828111156114065782518255916020019190600101906113eb565b50611412929150611416565b5090565b5b808211156114125760008155600101611417565b6001600160e01b031981168114610ae157600080fd5b60006020828403121561145357600080fd5b81356110208161142b565b60006020828403121561147057600080fd5b5035919050565b60005b8381101561149257818101518382015260200161147a565b838111156109265750506000910152565b600081518084526114bb816020860160208601611477565b601f01601f19169290920160200192915050565b60208152600061102060208301846114a3565b80356001600160a01b03811681146114f957600080fd5b919050565b6000806040838503121561151157600080fd5b61151a836114e2565b946020939093013593505050565b60008060006060848603121561153d57600080fd5b611546846114e2565b9250611554602085016114e2565b9150604084013590509250925092565b60006020828403121561157657600080fd5b611020826114e2565b6000806040838503121561159257600080fd5b61159b836114e2565b9150602083013580151581146115b057600080fd5b809150509250929050565b634e487b7160e01b600052604160045260246000fd5b600080600080608085870312156115e757600080fd5b6115f0856114e2565b93506115fe602086016114e2565b92506040850135915060608501356001600160401b038082111561162157600080fd5b818701915087601f83011261163557600080fd5b813581811115611647576116476115bb565b604051601f8201601f19908116603f0116810190838211818310171561166f5761166f6115bb565b816040528281528a602084870101111561168857600080fd5b82602086016020830137600060208483010152809550505050505092959194509250565b600080604083850312156116bf57600080fd5b6116c8836114e2565b91506116d6602084016114e2565b90509250929050565b634e487b7160e01b600052603260045260246000fd5b600181811c9082168061170957607f821691505b6020821081141561172a57634e487b7160e01b600052602260045260246000fd5b50919050565b6020808252602e908201527f4552433732313a2063616c6c6572206973206e6f7420746f6b656e206f776e6560408201526d1c881b9bdc88185c1c1c9bdd995960921b606082015260800190565b634e487b7160e01b600052601160045260246000fd5b6000828210156117a6576117a661177e565b500390565b600082198211156117be576117be61177e565b500190565b634e487b7160e01b600052601260045260246000fd5b6000826117e8576117e86117c3565b500690565b602080825260189082015277115490cdcc8c4e881a5b9d985b1a59081d1bdad95b88125160421b604082015260600190565b60008351611831818460208801611477565b835190830190611845818360208801611477565b01949350505050565b60208082526032908201527f4552433732313a207472616e7366657220746f206e6f6e20455243373231526560408201527131b2b4bb32b91034b6b83632b6b2b73a32b960711b606082015260800190565b6001600160a01b03858116825284166020820152604081018390526080606082018190526000906118d3908301846114a3565b9695505050505050565b6000602082840312156118ef57600080fd5b81516110208161142b565b600060001982141561190e5761190e61177e565b5060010190565b600082611924576119246117c3565b50049056feddf252ad1be2c89b69c2b068fc378daa952ba7f163c4a11628f55a4df523b3efa2646970667358221220f417aae000807c4c00bb5507d0485e7a3ede441067c9dc10031aeb80a67c242964736f6c634300080c0033a2646970667358221220fd67f02be21431cf01105dcc38420ae89e3d0544f473864c2aba61bb886a22f264736f6c634300080c0033",
  "devdoc": {
    "kind": "dev",
    "methods": {
      "onERC721Received(address,address,uint256,bytes)": {
        "details": "See {IERC721Receiver-onERC721Received}. Always returns `IERC721Receiver.onERC721Received.selector`."
      }
    },
    "version": 1
  },
  "userdoc": {
    "kind": "user",
    "methods": {},
    "version": 1
  },
  "storageLayout": {
    "storage": [
      {
        "astId": 2979,
        "contract": "contracts/SosolNFTMarketplace.sol:SosolNFTMarketplace",
        "label": "_tableId",
        "offset": 0,
        "slot": "0",
        "type": "t_uint256"
      },
      {
        "astId": 2981,
        "contract": "contracts/SosolNFTMarketplace.sol:SosolNFTMarketplace",
        "label": "_tableName",
        "offset": 0,
        "slot": "1",
        "type": "t_string_storage"
      },
      {
        "astId": 2984,
        "contract": "contracts/SosolNFTMarketplace.sol:SosolNFTMarketplace",
        "label": "_prefix",
        "offset": 0,
        "slot": "2",
        "type": "t_string_storage"
      },
      {
        "astId": 2987,
        "contract": "contracts/SosolNFTMarketplace.sol:SosolNFTMarketplace",
        "label": "_tableland",
        "offset": 0,
        "slot": "3",
        "type": "t_contract(ITablelandTables)2159"
      },
      {
        "astId": 2518,
        "contract": "contracts/SosolNFTMarketplace.sol:SosolNFTMarketplace",
        "label": "nftToOwner",
        "offset": 0,
        "slot": "4",
        "type": "t_mapping(t_address,t_address)"
      },
      {
        "astId": 2523,
        "contract": "contracts/SosolNFTMarketplace.sol:SosolNFTMarketplace",
        "label": "s_requestIdToNftRequest",
        "offset": 0,
        "slot": "5",
        "type": "t_mapping(t_uint256,t_struct(NftRequest)2496_storage)"
      },
      {
        "astId": 2527,
        "contract": "contracts/SosolNFTMarketplace.sol:SosolNFTMarketplace",
        "label": "ownerToBalance",
        "offset": 0,
        "slot": "6",
        "type": "t_mapping(t_address,t_uint256)"
      },
      {
        "astId": 2531,
        "contract": "contracts/SosolNFTMarketplace.sol:SosolNFTMarketplace",
        "label": "nftToTotalToken",
        "offset": 0,
        "slot": "7",
        "type": "t_mapping(t_address,t_uint256)"
      }
    ],
    "types": {
      "t_address": {
        "encoding": "inplace",
        "label": "address",
        "numberOfBytes": "20"
      },
      "t_contract(ITablelandTables)2159": {
        "encoding": "inplace",
        "label": "contract ITablelandTables",
        "numberOfBytes": "20"
      },
      "t_mapping(t_address,t_address)": {
        "encoding": "mapping",
        "key": "t_address",
        "label": "mapping(address => address)",
        "numberOfBytes": "32",
        "value": "t_address"
      },
      "t_mapping(t_address,t_uint256)": {
        "encoding": "mapping",
        "key": "t_address",
        "label": "mapping(address => uint256)",
        "numberOfBytes": "32",
        "value": "t_uint256"
      },
      "t_mapping(t_uint256,t_struct(NftRequest)2496_storage)": {
        "encoding": "mapping",
        "key": "t_uint256",
        "label": "mapping(uint256 => struct SosolNFTHandle.NftRequest)",
        "numberOfBytes": "32",
        "value": "t_struct(NftRequest)2496_storage"
      },
      "t_string_storage": {
        "encoding": "bytes",
        "label": "string",
        "numberOfBytes": "32"
      },
      "t_struct(NftRequest)2496_storage": {
        "encoding": "inplace",
        "label": "struct SosolNFTHandle.NftRequest",
        "members": [
          {
            "astId": 2493,
            "contract": "contracts/SosolNFTMarketplace.sol:SosolNFTMarketplace",
            "label": "requester",
            "offset": 0,
            "slot": "0",
            "type": "t_address"
          },
          {
            "astId": 2495,
            "contract": "contracts/SosolNFTMarketplace.sol:SosolNFTMarketplace",
            "label": "nftContract",
            "offset": 0,
            "slot": "1",
            "type": "t_address"
          }
        ],
        "numberOfBytes": "64"
      },
      "t_uint256": {
        "encoding": "inplace",
        "label": "uint256",
        "numberOfBytes": "32"
      }
    }
  }
}