{
  "address": "0x7FB627D3A4FafF7C44b67ef5756D69A05526a8b2",
  "abi": [
    {
      "inputs": [
        {
          "internalType": "address",
          "name": "registry",
          "type": "address"
        }
      ],
      "stateMutability": "nonpayable",
      "type": "constructor"
    },
    {
      "inputs": [
        {
          "internalType": "address",
          "name": "x",
          "type": "address"
        }
      ],
      "name": "_addressToString",
      "outputs": [
        {
          "internalType": "string",
          "name": "",
          "type": "string"
        }
      ],
      "stateMutability": "pure",
      "type": "function"
    },
    {
      "inputs": [
        {
          "internalType": "bytes1",
          "name": "b",
          "type": "bytes1"
        }
      ],
      "name": "char",
      "outputs": [
        {
          "internalType": "bytes1",
          "name": "c",
          "type": "bytes1"
        }
      ],
      "stateMutability": "pure",
      "type": "function"
    },
    {
      "inputs": [],
      "name": "getTableId",
      "outputs": [
        {
          "internalType": "uint256",
          "name": "",
          "type": "uint256"
        }
      ],
      "stateMutability": "view",
      "type": "function"
    },
    {
      "inputs": [],
      "name": "getTableName",
      "outputs": [
        {
          "internalType": "string",
          "name": "",
          "type": "string"
        }
      ],
      "stateMutability": "view",
      "type": "function"
    },
    {
      "inputs": [
        {
          "internalType": "address",
          "name": "",
          "type": "address"
        },
        {
          "internalType": "address",
          "name": "",
          "type": "address"
        },
        {
          "internalType": "uint256",
          "name": "",
          "type": "uint256"
        },
        {
          "internalType": "bytes",
          "name": "",
          "type": "bytes"
        }
      ],
      "name": "onERC721Received",
      "outputs": [
        {
          "internalType": "bytes4",
          "name": "",
          "type": "bytes4"
        }
      ],
      "stateMutability": "nonpayable",
      "type": "function"
    },
    {
      "inputs": [
        {
          "internalType": "string",
          "name": "title",
          "type": "string"
        },
        {
          "internalType": "string",
          "name": "thumbnailCid",
          "type": "string"
        },
        {
          "internalType": "string",
          "name": "finalCid",
          "type": "string"
        }
      ],
      "name": "upload",
      "outputs": [],
      "stateMutability": "nonpayable",
      "type": "function"
    }
  ],
  "transactionHash": "0x094a9f736c86136d9f6872060f30252a8109c353abc01f92a2191928b5a53df0",
  "args": [
    "0x4b48841d4b32c4650e4abc117a03fe8b51f38f68"
  ],
  "numDeployments": 6,
  "solcInputHash": "08cdff56690922ca99a73da191a33acb",
  "bytecode": "0x60c06040526006608081905265736f736f6c3360d01b60a0908152620000299160029190620002b3565b503480156200003757600080fd5b506040516200138e3803806200138e8339810160408190526200005a9162000359565b600380546001600160a01b0319166001600160a01b038316908117909155633a9151b0306002620000974662000196602090811b6200043b17901c565b604051602001620000aa9291906200049d565b6040516020818303038152906040526040518363ffffffff1660e01b8152600401620000d892919062000585565b6020604051808303816000875af1158015620000f8573d6000803e3d6000fd5b505050506040513d601f19601f820116820180604052508101906200011e9190620005c9565b60008190555060026200013c466200019660201b6200043b1760201c565b620001546000546200019660201b6200043b1760201c565b6040516020016200016893929190620005e3565b604051602081830303815290604052600190805190602001906200018e929190620002b3565b505062000711565b606081620001bb5750506040805180820190915260018152600360fc1b602082015290565b8160005b8115620001eb5780620001d2816200064e565b9150620001e39050600a8362000682565b9150620001bf565b6000816001600160401b0381111562000208576200020862000699565b6040519080825280601f01601f19166020018201604052801562000233576020820181803683370190505b5090505b8415620002ab576200024b600183620006af565b91506200025a600a86620006c9565b62000267906030620006e0565b60f81b8183815181106200027f576200027f620006fb565b60200101906001600160f81b031916908160001a905350620002a3600a8662000682565b945062000237565b949350505050565b828054620002c1906200038b565b90600052602060002090601f016020900481019282620002e5576000855562000330565b82601f106200030057805160ff191683800117855562000330565b8280016001018555821562000330579182015b828111156200033057825182559160200191906001019062000313565b506200033e92915062000342565b5090565b5b808211156200033e576000815560010162000343565b6000602082840312156200036c57600080fd5b81516001600160a01b03811681146200038457600080fd5b9392505050565b600181811c90821680620003a057607f821691505b60208210811415620003c257634e487b7160e01b600052602260045260246000fd5b50919050565b8054600090600181811c9080831680620003e357607f831692505b60208084108214156200040657634e487b7160e01b600052602260045260246000fd5b8180156200041d57600181146200042f576200045e565b60ff198616895284890196506200045e565b60008881526020902060005b86811015620004565781548b8201529085019083016200043b565b505084890196505b50505050505092915050565b60005b83811015620004875781810151838201526020016200046d565b8381111562000497576000848401525b50505050565b6c021a922a0aa22902a20a126229609d1b81526000620004c1600d830185620003c8565b605f60f81b81528351620004dd8160018401602088016200046a565b7f2028696420696e7465676572207072696d617279206b65792c20757365724164600192909101918201527f64726573732074657874204e4f54204e554c4c2c207469746c6520746578742060218201527f4e4f54204e554c4c2c207468756d626e61696c4369642074657874204e4f542060418201527f4e554c4c2c2066696e616c4369642074657874204e4f54204e554c4c293b00006061820152607f01949350505050565b60018060a01b03831681526040602082015260008251806040840152620005b48160608501602087016200046a565b601f01601f1916919091016060019392505050565b600060208284031215620005dc57600080fd5b5051919050565b6000620005f18286620003c8565b605f60f81b80825285516200060e816001850160208a016200046a565b600192019182015283516200062b8160028401602088016200046a565b0160020195945050505050565b634e487b7160e01b600052601160045260246000fd5b600060001982141562000665576200066562000638565b5060010190565b634e487b7160e01b600052601260045260246000fd5b6000826200069457620006946200066c565b500490565b634e487b7160e01b600052604160045260246000fd5b600082821015620006c457620006c462000638565b500390565b600082620006db57620006db6200066c565b500690565b60008219821115620006f657620006f662000638565b500190565b634e487b7160e01b600052603260045260246000fd5b610c6d80620007216000396000f3fe608060405234801561001057600080fd5b50600436106100625760003560e01c8063150b7a02146100675780635d5a33a2146100a357806369f9ad2f146100b857806388e4f1cb146100e457806388e9a48a146100f55780638dee819214610108575b600080fd5b6100856100753660046105e4565b630a85bd0160e11b949350505050565b6040516001600160e01b031990911681526020015b60405180910390f35b6100ab61011d565b60405161009a91906106bc565b6100cb6100c63660046106d6565b6101af565b6040516001600160f81b0319909116815260200161009a565b60005460405190815260200161009a565b6100ab610103366004610700565b6101ea565b61011b61011636600461073b565b610353565b005b60606001805461012c906107c3565b80601f0160208091040260200160405190810160405280929190818152602001828054610158906107c3565b80156101a55780601f1061017a576101008083540402835291602001916101a5565b820191906000526020600020905b81548152906001019060200180831161018857829003601f168201915b5050505050905090565b6000600a60f883901c10156101d6576101cd60f883901c6030610814565b60f81b92915050565b6101cd60f883901c6057610814565b919050565b60408051602880825260608281019093526000919060208201818036833701905050905060005b601481101561032a576000610227826013610839565b610232906008610850565b61023d906002610955565b610250906001600160a01b038716610977565b60f81b9050600060108260f81c610267919061098b565b60f81b905060008160f81c601061027e91906109ad565b8360f81c61028c91906109ce565b60f81b905061029a826101af565b856102a6866002610850565b815181106102b6576102b66109f1565b60200101906001600160f81b031916908160001a9053506102d6816101af565b856102e2866002610850565b6102ed906001610a07565b815181106102fd576102fd6109f1565b60200101906001600160f81b031916908160001a905350505050808061032290610a1f565b915050610211565b508060405160200161033c9190610a56565b604051602081830303815290604052915050919050565b60005461039b5760405162461bcd60e51b81526020600482015260126024820152715461626c65206e6f7420637265617465642160701b604482015260640160405180910390fd5b6003546000546001600160a01b039091169063eaf5d04e90309060016103c0336101ea565b8888886040516020016103d7959493929190610a80565b6040516020818303038152906040526040518463ffffffff1660e01b815260040161040493929190610bf3565b600060405180830381600087803b15801561041e57600080fd5b505af1158015610432573d6000803e3d6000fd5b50505050505050565b60608161045f5750506040805180820190915260018152600360fc1b602082015290565b8160005b8115610489578061047381610a1f565b91506104829050600a83610977565b9150610463565b60008167ffffffffffffffff8111156104a4576104a4610558565b6040519080825280601f01601f1916602001820160405280156104ce576020820181803683370190505b5090505b8415610539576104e3600183610839565b91506104f0600a86610c23565b6104fb906030610a07565b60f81b818381518110610510576105106109f1565b60200101906001600160f81b031916908160001a905350610532600a86610977565b94506104d2565b949350505050565b80356001600160a01b03811681146101e557600080fd5b634e487b7160e01b600052604160045260246000fd5b600067ffffffffffffffff8084111561058957610589610558565b604051601f8501601f19908116603f011681019082821181831017156105b1576105b1610558565b816040528093508581528686860111156105ca57600080fd5b858560208301376000602087830101525050509392505050565b600080600080608085870312156105fa57600080fd5b61060385610541565b935061061160208601610541565b925060408501359150606085013567ffffffffffffffff81111561063457600080fd5b8501601f8101871361064557600080fd5b6106548782356020840161056e565b91505092959194509250565b60005b8381101561067b578181015183820152602001610663565b8381111561068a576000848401525b50505050565b600081518084526106a8816020860160208601610660565b601f01601f19169290920160200192915050565b6020815260006106cf6020830184610690565b9392505050565b6000602082840312156106e857600080fd5b81356001600160f81b0319811681146106cf57600080fd5b60006020828403121561071257600080fd5b6106cf82610541565b600082601f83011261072c57600080fd5b6106cf8383356020850161056e565b60008060006060848603121561075057600080fd5b833567ffffffffffffffff8082111561076857600080fd5b6107748783880161071b565b9450602086013591508082111561078a57600080fd5b6107968783880161071b565b935060408601359150808211156107ac57600080fd5b506107b98682870161071b565b9150509250925092565b600181811c908216806107d757607f821691505b602082108114156107f857634e487b7160e01b600052602260045260246000fd5b50919050565b634e487b7160e01b600052601160045260246000fd5b600060ff821660ff84168060ff03821115610831576108316107fe565b019392505050565b60008282101561084b5761084b6107fe565b500390565b600081600019048311821515161561086a5761086a6107fe565b500290565b600181815b808511156108aa578160001904821115610890576108906107fe565b8085161561089d57918102915b93841c9390800290610874565b509250929050565b6000826108c15750600161094f565b816108ce5750600061094f565b81600181146108e457600281146108ee5761090a565b600191505061094f565b60ff8411156108ff576108ff6107fe565b50506001821b61094f565b5060208310610133831016604e8410600b841016171561092d575081810a61094f565b610937838361086f565b806000190482111561094b5761094b6107fe565b0290505b92915050565b60006106cf83836108b2565b634e487b7160e01b600052601260045260246000fd5b60008261098657610986610961565b500490565b600060ff83168061099e5761099e610961565b8060ff84160491505092915050565b600060ff821660ff84168160ff048111821515161561094b5761094b6107fe565b600060ff821660ff8416808210156109e8576109e86107fe565b90039392505050565b634e487b7160e01b600052603260045260246000fd5b60008219821115610a1a57610a1a6107fe565b500190565b6000600019821415610a3357610a336107fe565b5060010190565b60008151610a4c818560208601610660565b9290920192915050565b61060f60f31b815260008251610a73816002850160208701610660565b9190910160020192915050565b6b024a729a2a92a1024a72a27960a51b81526000600c6000885481600182811c915080831680610ab157607f831692505b6020808410821415610ad157634e487b7160e01b86526022600452602486fd5b818015610ae55760018114610afa57610b2b565b60ff1986168a890152848a0188019650610b2b565b60008f81526020902060005b86811015610b215781548c82018b0152908501908301610b06565b505087858b010196505b50507f202875736572416464726573732c207469746c652c207468756d626e61696c43855250750d2c85840ccd2dcc2d886d2c85240ac8298aa8aa640560531b602085015260368401602760f81b81529450610b898186018c610a3a565b945050505050610b9e8162272c2760e81b9052565b610bab6003820187610a3a565b62272c2760e81b81529050610bc36003820186610a3a565b62272c2760e81b81529050610bdb6003820185610a3a565b6227293b60e81b815260030198975050505050505050565b60018060a01b0384168152826020820152606060408201526000610c1a6060830184610690565b95945050505050565b600082610c3257610c32610961565b50069056fea26469706673582212201b92d56d31ff1231b35f00d900f82d92b56f0f67fec3861717f0c419ceca012464736f6c634300080c0033",
  "devdoc": {
    "kind": "dev",
    "methods": {
      "onERC721Received(address,address,uint256,bytes)": {
        "details": "See {IERC721Receiver-onERC721Received}. Always returns `IERC721Receiver.onERC721Received.selector`."
      }
    },
    "version": 1
  },
  "userdoc": {
    "kind": "user",
    "methods": {},
    "version": 1
  },
  "storageLayout": {
    "storage": [
      {
        "astId": 3252,
        "contract": "contracts/SosolVideos.sol:SosolVideos",
        "label": "_tableId",
        "offset": 0,
        "slot": "0",
        "type": "t_uint256"
      },
      {
        "astId": 3254,
        "contract": "contracts/SosolVideos.sol:SosolVideos",
        "label": "_tableName",
        "offset": 0,
        "slot": "1",
        "type": "t_string_storage"
      },
      {
        "astId": 3257,
        "contract": "contracts/SosolVideos.sol:SosolVideos",
        "label": "_prefix",
        "offset": 0,
        "slot": "2",
        "type": "t_string_storage"
      },
      {
        "astId": 3260,
        "contract": "contracts/SosolVideos.sol:SosolVideos",
        "label": "_tableland",
        "offset": 0,
        "slot": "3",
        "type": "t_contract(ITablelandTables)2159"
      }
    ],
    "types": {
      "t_contract(ITablelandTables)2159": {
        "encoding": "inplace",
        "label": "contract ITablelandTables",
        "numberOfBytes": "20"
      },
      "t_string_storage": {
        "encoding": "bytes",
        "label": "string",
        "numberOfBytes": "32"
      },
      "t_uint256": {
        "encoding": "inplace",
        "label": "uint256",
        "numberOfBytes": "32"
      }
    }
  }
}