{
  "address": "0x28aE197891315B19BfCe628EfA9cB2000c784119",
  "abi": [
    {
      "inputs": [
        {
          "internalType": "address",
          "name": "registry",
          "type": "address"
        },
        {
          "internalType": "address",
          "name": "vrfCoordinatorV2",
          "type": "address"
        },
        {
          "internalType": "uint64",
          "name": "subscriptionId",
          "type": "uint64"
        },
        {
          "internalType": "bytes32",
          "name": "gasLane",
          "type": "bytes32"
        },
        {
          "internalType": "uint32",
          "name": "callbackGasLimit",
          "type": "uint32"
        },
        {
          "internalType": "uint256",
          "name": "nftCreatePrice",
          "type": "uint256"
        }
      ],
      "stateMutability": "nonpayable",
      "type": "constructor"
    },
    {
      "inputs": [],
      "name": "NFTNotAvailable",
      "type": "error"
    },
    {
      "inputs": [],
      "name": "NeedMoreETH",
      "type": "error"
    },
    {
      "inputs": [],
      "name": "NftContractNotExists",
      "type": "error"
    },
    {
      "inputs": [
        {
          "internalType": "address",
          "name": "have",
          "type": "address"
        },
        {
          "internalType": "address",
          "name": "want",
          "type": "address"
        }
      ],
      "name": "OnlyCoordinatorCanFulfill",
      "type": "error"
    },
    {
      "inputs": [],
      "name": "WithdrawFailed",
      "type": "error"
    },
    {
      "anonymous": false,
      "inputs": [
        {
          "indexed": false,
          "internalType": "address",
          "name": "sosolNFT",
          "type": "address"
        },
        {
          "indexed": false,
          "internalType": "address",
          "name": "owner",
          "type": "address"
        }
      ],
      "name": "NFTCreated",
      "type": "event"
    },
    {
      "anonymous": false,
      "inputs": [
        {
          "indexed": false,
          "internalType": "address",
          "name": "minter",
          "type": "address"
        },
        {
          "indexed": false,
          "internalType": "address",
          "name": "nftContract",
          "type": "address"
        }
      ],
      "name": "NftMintRequested",
      "type": "event"
    },
    {
      "anonymous": false,
      "inputs": [
        {
          "indexed": false,
          "internalType": "uint256",
          "name": "requestId",
          "type": "uint256"
        },
        {
          "indexed": false,
          "internalType": "address",
          "name": "requester",
          "type": "address"
        }
      ],
      "name": "NftRequested",
      "type": "event"
    },
    {
      "anonymous": false,
      "inputs": [
        {
          "indexed": true,
          "internalType": "address",
          "name": "previousOwner",
          "type": "address"
        },
        {
          "indexed": true,
          "internalType": "address",
          "name": "newOwner",
          "type": "address"
        }
      ],
      "name": "OwnershipTransferred",
      "type": "event"
    },
    {
      "inputs": [
        {
          "internalType": "address",
          "name": "x",
          "type": "address"
        }
      ],
      "name": "_addressToString",
      "outputs": [
        {
          "internalType": "string",
          "name": "",
          "type": "string"
        }
      ],
      "stateMutability": "pure",
      "type": "function"
    },
    {
      "inputs": [
        {
          "internalType": "bytes1",
          "name": "b",
          "type": "bytes1"
        }
      ],
      "name": "char",
      "outputs": [
        {
          "internalType": "bytes1",
          "name": "c",
          "type": "bytes1"
        }
      ],
      "stateMutability": "pure",
      "type": "function"
    },
    {
      "inputs": [
        {
          "internalType": "uint256",
          "name": "videoID",
          "type": "uint256"
        },
        {
          "internalType": "string",
          "name": "nftName",
          "type": "string"
        },
        {
          "internalType": "string",
          "name": "nftSymbol",
          "type": "string"
        },
        {
          "internalType": "uint256",
          "name": "mintFee",
          "type": "uint256"
        },
        {
          "internalType": "uint256[3]",
          "name": "sosolTokenRarity",
          "type": "uint256[3]"
        },
        {
          "internalType": "string[3]",
          "name": "sosolTokenUris",
          "type": "string[3]"
        },
        {
          "internalType": "uint256",
          "name": "sosolTotalToken",
          "type": "uint256"
        }
      ],
      "name": "createNFT",
      "outputs": [],
      "stateMutability": "payable",
      "type": "function"
    },
    {
      "inputs": [],
      "name": "getMarketTableId",
      "outputs": [
        {
          "internalType": "uint256",
          "name": "",
          "type": "uint256"
        }
      ],
      "stateMutability": "view",
      "type": "function"
    },
    {
      "inputs": [],
      "name": "getMarketTableName",
      "outputs": [
        {
          "internalType": "string",
          "name": "",
          "type": "string"
        }
      ],
      "stateMutability": "view",
      "type": "function"
    },
    {
      "inputs": [
        {
          "internalType": "address",
          "name": "nftContract",
          "type": "address"
        }
      ],
      "name": "getNftContractOwner",
      "outputs": [
        {
          "internalType": "address",
          "name": "",
          "type": "address"
        }
      ],
      "stateMutability": "view",
      "type": "function"
    },
    {
      "inputs": [
        {
          "internalType": "address",
          "name": "nftContractOwner",
          "type": "address"
        }
      ],
      "name": "getNftContractOwnerBalance",
      "outputs": [
        {
          "internalType": "uint256",
          "name": "",
          "type": "uint256"
        }
      ],
      "stateMutability": "view",
      "type": "function"
    },
    {
      "inputs": [],
      "name": "getNftCreatePrice",
      "outputs": [
        {
          "internalType": "uint256",
          "name": "",
          "type": "uint256"
        }
      ],
      "stateMutability": "view",
      "type": "function"
    },
    {
      "inputs": [],
      "name": "getNftTableId",
      "outputs": [
        {
          "internalType": "uint256",
          "name": "",
          "type": "uint256"
        }
      ],
      "stateMutability": "view",
      "type": "function"
    },
    {
      "inputs": [],
      "name": "getNftTableName",
      "outputs": [
        {
          "internalType": "string",
          "name": "",
          "type": "string"
        }
      ],
      "stateMutability": "view",
      "type": "function"
    },
    {
      "inputs": [
        {
          "internalType": "address",
          "name": "nftContract",
          "type": "address"
        }
      ],
      "name": "getNftTotalToken",
      "outputs": [
        {
          "internalType": "uint256",
          "name": "",
          "type": "uint256"
        }
      ],
      "stateMutability": "view",
      "type": "function"
    },
    {
      "inputs": [
        {
          "internalType": "address",
          "name": "",
          "type": "address"
        },
        {
          "internalType": "address",
          "name": "",
          "type": "address"
        },
        {
          "internalType": "uint256",
          "name": "",
          "type": "uint256"
        },
        {
          "internalType": "bytes",
          "name": "",
          "type": "bytes"
        }
      ],
      "name": "onERC721Received",
      "outputs": [
        {
          "internalType": "bytes4",
          "name": "",
          "type": "bytes4"
        }
      ],
      "stateMutability": "nonpayable",
      "type": "function"
    },
    {
      "inputs": [],
      "name": "owner",
      "outputs": [
        {
          "internalType": "address",
          "name": "",
          "type": "address"
        }
      ],
      "stateMutability": "view",
      "type": "function"
    },
    {
      "inputs": [
        {
          "internalType": "uint256",
          "name": "requestId",
          "type": "uint256"
        },
        {
          "internalType": "uint256[]",
          "name": "randomWords",
          "type": "uint256[]"
        }
      ],
      "name": "rawFulfillRandomWords",
      "outputs": [],
      "stateMutability": "nonpayable",
      "type": "function"
    },
    {
      "inputs": [],
      "name": "renounceOwnership",
      "outputs": [],
      "stateMutability": "nonpayable",
      "type": "function"
    },
    {
      "inputs": [
        {
          "internalType": "address",
          "name": "nftContractAddress",
          "type": "address"
        }
      ],
      "name": "requestNft",
      "outputs": [
        {
          "internalType": "uint256",
          "name": "requestId",
          "type": "uint256"
        }
      ],
      "stateMutability": "payable",
      "type": "function"
    },
    {
      "inputs": [
        {
          "internalType": "uint256",
          "name": "nftCreatePrice",
          "type": "uint256"
        }
      ],
      "name": "setNftCreatePrice",
      "outputs": [],
      "stateMutability": "nonpayable",
      "type": "function"
    },
    {
      "inputs": [
        {
          "internalType": "address",
          "name": "newOwner",
          "type": "address"
        }
      ],
      "name": "transferOwnership",
      "outputs": [],
      "stateMutability": "nonpayable",
      "type": "function"
    },
    {
      "inputs": [],
      "name": "withdraw",
      "outputs": [],
      "stateMutability": "nonpayable",
      "type": "function"
    },
    {
      "inputs": [],
      "name": "withdrawMarketplace",
      "outputs": [],
      "stateMutability": "nonpayable",
      "type": "function"
    }
  ],
  "transactionHash": "0xd462c3bf48c15c54d32978ea3feead7f1e321a853b9941488a9f06718850cf2b",
  "args": [
    "0x4b48841d4b32c4650e4abc117a03fe8b51f38f68",
    "0x7a1BaC17Ccc5b313516C5E16fb24f7659aA5ebed",
    "1919",
    "0x4b09e658ed251bcafeebbc69400383d49f344ace09b9576fe248bb02c003fe9f",
    "500000",
    "10000000000000000"
  ],
  "numDeployments": 2,
  "solcInputHash": "e58b9da4d8125be9f3b397c586b1470d",
  "bytecode": "0x610160604052600661012081905265736f736f6c3360d01b6101409081526200002c916004919062000470565b503480156200003a57600080fd5b50604051620046fc380380620046fc8339810160408190526200005d9162000533565b6001600160a01b03858116608052600580546001600160a01b0319169188169182179055869082908290633a9151b0306004620000a64662000301602090811b6200092317901c565b604051602001620000b9929190620006cf565b6040516020818303038152906040526040518363ffffffff1660e01b8152600401620000e792919062000781565b6020604051808303816000875af115801562000107573d6000803e3d6000fd5b505050506040513d601f19601f820116820180604052508101906200012d9190620007c5565b60008190555060046200014b466200030160201b620009231760201c565b620001636000546200030160201b620009231760201c565b6040516020016200017793929190620007df565b604051602081830303815290604052600190805190602001906200019d92919062000470565b506005546001600160a01b0316633a9151b0306004620001c94662000301602090811b6200092317901c565b604051602001620001dc92919062000834565b6040516020818303038152906040526040518363ffffffff1660e01b81526004016200020a92919062000781565b6020604051808303816000875af11580156200022a573d6000803e3d6000fd5b505050506040513d601f19601f82011682018060405250810190620002509190620007c5565b60028190555060046200026e466200030160201b620009231760201c565b620002866002546200030160201b620009231760201c565b6040516020016200029a93929190620007df565b60405160208183030381529060405260039080519060200190620002c092919062000470565b50620002ce9050336200041e565b600b5550506001600160a01b0390931660a05260e0526001600160401b031660c05263ffffffff166101005250620009c2565b606081620003265750506040805180820190915260018152600360fc1b602082015290565b8160005b81156200035657806200033d81620008ff565b91506200034e9050600a8362000933565b91506200032a565b6000816001600160401b038111156200037357620003736200094a565b6040519080825280601f01601f1916602001820160405280156200039e576020820181803683370190505b5090505b84156200041657620003b660018362000960565b9150620003c5600a866200097a565b620003d290603062000991565b60f81b818381518110620003ea57620003ea620009ac565b60200101906001600160f81b031916908160001a9053506200040e600a8662000933565b9450620003a2565b949350505050565b600680546001600160a01b038381166001600160a01b0319831681179093556040519116919082907f8be0079c531659141344cd1fd0a4f28419497f9722a3daafe3b4186f6b6457e090600090a35050565b8280546200047e90620005bd565b90600052602060002090601f016020900481019282620004a25760008555620004ed565b82601f10620004bd57805160ff1916838001178555620004ed565b82800160010185558215620004ed579182015b82811115620004ed578251825591602001919060010190620004d0565b50620004fb929150620004ff565b5090565b5b80821115620004fb576000815560010162000500565b80516001600160a01b03811681146200052e57600080fd5b919050565b60008060008060008060c087890312156200054d57600080fd5b620005588762000516565b9550620005686020880162000516565b60408801519095506001600160401b03811681146200058657600080fd5b60608801516080890151919550935063ffffffff81168114620005a857600080fd5b8092505060a087015190509295509295509295565b600181811c90821680620005d257607f821691505b60208210811415620005f457634e487b7160e01b600052602260045260246000fd5b50919050565b8054600090600181811c90808316806200061557607f831692505b60208084108214156200063857634e487b7160e01b600052602260045260246000fd5b8180156200064f5760018114620006615762000690565b60ff1986168952848901965062000690565b60008881526020902060005b86811015620006885781548b8201529085019083016200066d565b505084890196505b50505050505092915050565b60005b83811015620006b95781810151838201526020016200069f565b83811115620006c9576000848401525b50505050565b6c021a922a0aa22902a20a126229609d1b81526000620006f3600d830185620005fa565b605f60f81b815283516200070f8160018401602088016200069c565b600080516020620046bc83398151915260019290910191820152600080516020620046dc83398151915260218201527f74657874204e4f54204e554c4c2c20766964656f494420696e7465676572204e6041820152684f54204e554c4c293b60b81b6061820152606a01949350505050565b60018060a01b03831681526040602082015260008251806040840152620007b08160608501602087016200069c565b601f01601f1916919091016060019392505050565b600060208284031215620007d857600080fd5b5051919050565b6000620007ed8286620005fa565b605f60f81b80825285516200080a816001850160208a016200069c565b60019201918201528351620008278160028401602088016200069c565b0160020195945050505050565b6c021a922a0aa22902a20a126229609d1b8152600062000858600d830185620005fa565b605f60f81b81528351620008748160018401602088016200069c565b600080516020620046bc83398151915260019290910191820152600080516020620046dc83398151915260218201527f74657874204e4f54204e554c4c2c20746f6b656e496e64657820696e7465676560418201526b72204e4f54204e554c4c293b60a01b6061820152606d01949350505050565b634e487b7160e01b600052601160045260246000fd5b6000600019821415620009165762000916620008e9565b5060010190565b634e487b7160e01b600052601260045260246000fd5b6000826200094557620009456200091d565b500490565b634e487b7160e01b600052604160045260246000fd5b600082821015620009755762000975620008e9565b500390565b6000826200098c576200098c6200091d565b500690565b60008219821115620009a757620009a7620008e9565b500190565b634e487b7160e01b600052603260045260246000fd5b60805160a05160c05160e05161010051613cae62000a0e60003960006107d2015260006107710152600061079f0152600061080301526000818161043001526104590152613cae6000f3fe608060405260043610620001045760003560e01c8063068de28c14620001095780630b30f7bb14620001305780630b8d9a6f146200017d578063150b7a0214620001945780631fe543e314620001dd5780633ccfd60b146200020257806352f0851d146200021a57806358758418146200024157806366a8cd47146200025857806369f9ad2f1462000270578063715018a614620002af57806374fad9b714620002c7578063750e6fde146200031d5780638188a6c6146200033457806388e9a48a146200034c5780638da5cb5b1462000371578063bca89cc31462000389578063c75ee78414620003c3578063c7dc7e6214620003da578063f2fde38b14620003f1575b600080fd5b3480156200011657600080fd5b506200012e62000128366004620011dd565b62000416565b005b3480156200013d57600080fd5b506200016a6200014f3660046200120f565b6001600160a01b03166000908152600a602052604090205490565b6040519081526020015b60405180910390f35b3480156200018a57600080fd5b50600b546200016a565b348015620001a157600080fd5b50620001c3620001b336600462001305565b630a85bd0160e11b949350505050565b6040516001600160e01b0319909116815260200162000174565b348015620001ea57600080fd5b506200012e620001fc36600462001389565b62000425565b3480156200020f57600080fd5b506200012e620004ae565b3480156200022757600080fd5b5062000232620004bb565b604051620001749190620014a6565b3480156200024e57600080fd5b506000546200016a565b3480156200026557600080fd5b506200023262000555565b3480156200027d57600080fd5b50620002956200028f366004620014bb565b62000566565b6040516001600160f81b0319909116815260200162000174565b348015620002bc57600080fd5b506200012e620005a6565b348015620002d457600080fd5b5062000304620002e63660046200120f565b6001600160a01b039081166000908152600760205260409020541690565b6040516001600160a01b03909116815260200162000174565b3480156200032a57600080fd5b506002546200016a565b3480156200034157600080fd5b506200012e620005bc565b3480156200035957600080fd5b50620002326200036b3660046200120f565b620005c6565b3480156200037e57600080fd5b506200030462000753565b3480156200039657600080fd5b506200016a620003a83660046200120f565b6001600160a01b031660009081526009602052604090205490565b6200016a620003d43660046200120f565b62000762565b6200012e620003eb36600462001585565b62000889565b348015620003fe57600080fd5b506200012e620004103660046200120f565b620008a4565b6200042062000a40565b600b55565b336001600160a01b037f000000000000000000000000000000000000000000000000000000000000000016146200049e57337f000000000000000000000000000000000000000000000000000000000000000060405163073e64fd60e21b81526004016200049592919062001687565b60405180910390fd5b620004aa828262000aa3565b5050565b620004b93362000aaf565b565b606060018054620004cc90620016a1565b80601f0160208091040260200160405190810160405280929190818152602001828054620004fa90620016a1565b80156200054b5780601f106200051f576101008083540402835291602001916200054b565b820191906000526020600020905b8154815290600101906020018083116200052d57829003601f168201915b5050505050905090565b606060038054620004cc90620016a1565b6000600a60f883901c101562000590576200058760f883901c6030620016f4565b60f81b92915050565b6200058760f883901c6057620016f4565b919050565b620005b062000a40565b620004b9600062000b5f565b620004b962000bb1565b60408051602880825260608281019093526000919060208201818036833701905050905060005b601481101562000728576000620006068260136200171c565b6200061390600862001736565b6200062090600262001857565b62000635906001600160a01b0387166200187b565b60f81b9050600060108260f81c6200064e919062001892565b60f81b905060008160f81c6010620006679190620018b7565b8360f81c620006779190620018db565b60f81b9050620006878262000566565b856200069586600262001736565b81518110620006a857620006a862001901565b60200101906001600160f81b031916908160001a905350620006ca8162000566565b85620006d886600262001736565b620006e590600162001917565b81518110620006f857620006f862001901565b60200101906001600160f81b031916908160001a90535050505080806200071f9062001932565b915050620005ed565b50806040516020016200073c919062001950565b604051602081830303815290604052915050919050565b6006546001600160a01b031690565b6040516305d3b1d360e41b81527f000000000000000000000000000000000000000000000000000000000000000060048201526001600160401b037f00000000000000000000000000000000000000000000000000000000000000001660248201526003604482015263ffffffff7f0000000000000000000000000000000000000000000000000000000000000000166064820152600160848201526000907f00000000000000000000000000000000000000000000000000000000000000006001600160a01b031690635d3b1d309060a4016020604051808303816000875af115801562000855573d6000803e3d6000fd5b505050506040513d601f19601f820116820180604052508101906200087b91906200197c565b9050620005a1828262000c3b565b6200089b338888888888888862000df8565b50505050505050565b620008ae62000a40565b6001600160a01b038116620009155760405162461bcd60e51b815260206004820152602660248201527f4f776e61626c653a206e6577206f776e657220697320746865207a65726f206160448201526564647265737360d01b606482015260840162000495565b620009208162000b5f565b50565b606081620009485750506040805180820190915260018152600360fc1b602082015290565b8160005b81156200097857806200095f8162001932565b9150620009709050600a836200187b565b91506200094c565b6000816001600160401b0381111562000995576200099562001234565b6040519080825280601f01601f191660200182016040528015620009c0576020820181803683370190505b5090505b841562000a3857620009d86001836200171c565b9150620009e7600a8662001996565b620009f490603062001917565b60f81b81838151811062000a0c5762000a0c62001901565b60200101906001600160f81b031916908160001a90535062000a30600a866200187b565b9450620009c4565b949350505050565b3362000a4b62000753565b6001600160a01b031614620004b95760405162461bcd60e51b815260206004820181905260248201527f4f776e61626c653a2063616c6c6572206973206e6f7420746865206f776e6572604482015260640162000495565b620004aa828262000ef1565b6001600160a01b03811660009081526009602052604090205462000ad257600080fd5b6001600160a01b038116600081815260096020526040808220805490839055905190929083908381818185875af1925050503d806000811462000b32576040519150601f19603f3d011682016040523d82523d6000602084013e62000b37565b606091505b505090508062000b5a57604051631d42c86760e21b815260040160405180910390fd5b505050565b600680546001600160a01b038381166001600160a01b0319831681179093556040519116919082907f8be0079c531659141344cd1fd0a4f28419497f9722a3daafe3b4186f6b6457e090600090a35050565b62000bbb62000a40565b600062000bc762000753565b6001600160a01b03164760405160006040518083038185875af1925050503d806000811462000c13576040519150601f19603f3d011682016040523d82523d6000602084013e62000c18565b606091505b50509050806200092057604051631d42c86760e21b815260040160405180910390fd5b6001600160a01b038281166000908152600760205260409020541662000c7457604051639ac95c8560e01b815260040160405180910390fd5b6000829050806001600160a01b0316637a5caab36040518163ffffffff1660e01b8152600401602060405180830381865afa15801562000cb8573d6000803e3d6000fd5b505050506040513d601f19601f8201168201806040525081019062000cde91906200197c565b34101562000cff57604051633b7f4ae160e21b815260040160405180910390fd5b6001600160a01b0383166000908152600a602052604090205462000d365760405163314a94b160e21b815260040160405180910390fd5b6001600160a01b0383166000908152600a6020526040812080546001929062000d619084906200171c565b9091555050604080518082018252338082526001600160a01b038681166020808501918252600088815260088252869020945185549084166001600160a01b031991821617865591516001909501805495909316949091169390931790558251858152918201527ff873236e6cc0ecc5be1a9a35c95ee5b8d1ac4cc7bfef0cc5060391d6cc98e26b910160405180910390a1505050565b600b5434101562000e1c57604051633b7f4ae160e21b815260040160405180910390fd5b600086868686868660405162000e3290620011cf565b62000e4396959493929190620019ad565b604051809103906000f08015801562000e60573d6000803e3d6000fd5b506001600160a01b038181166000908152600a602090815260408083208790556007909152902080546001600160a01b031916918c16919091179055905062000eab89828a620010cc565b7fe4944a5f0bf5ee82c3c6769e53000a678b52be77b461a2e8f7b3434eff94670e818a60405162000ede92919062001687565b60405180910390a1505050505050505050565b6000828152600860205260408120805460019091015483516001600160a01b03928316939290911691829182906340c10f199086908890859062000f395762000f3962001901565b60200260200101516040518363ffffffff1660e01b815260040162000f739291906001600160a01b03929092168252602082015260400190565b6020604051808303816000875af115801562000f93573d6000803e3d6000fd5b505050506040513d601f19601f8201168201806040525081019062000fb991906200197c565b905062000fc88484836200117d565b6064826001600160a01b0316637a5caab36040518163ffffffff1660e01b8152600401602060405180830381865afa15801562001009573d6000803e3d6000fd5b505050506040513d601f19601f820116820180604052508101906200102f91906200197c565b6200103c90605a62001736565b6200104891906200187b565b6001600160a01b0380851660009081526007602090815260408083205490931682526009905290812080549091906200108390849062001917565b90915550506040517f3bcfcfcdfd0ae90e20ca88989406bac380d49b0e6051a0acf56959587b2abd2a90620010bc908690869062001687565b60405180910390a1505050505050565b6005546000546001600160a01b039091169063eaf5d04e9030906001620010f388620005c6565b620010fe88620005c6565b620011098862000923565b6040516020016200111e949392919062001b08565b6040516020818303038152906040526040518463ffffffff1660e01b81526004016200114d9392919062001be5565b600060405180830381600087803b1580156200116857600080fd5b505af11580156200089b573d6000803e3d6000fd5b6005546002546001600160a01b039091169063eaf5d04e9030906003620011a488620005c6565b620011af88620005c6565b620011ba8862000923565b6040516020016200111e949392919062001c17565b611f818062001cf883390190565b600060208284031215620011f057600080fd5b5035919050565b80356001600160a01b0381168114620005a157600080fd5b6000602082840312156200122257600080fd5b6200122d82620011f7565b9392505050565b634e487b7160e01b600052604160045260246000fd5b604051606081016001600160401b03811182821017156200126f576200126f62001234565b60405290565b604051601f8201601f191681016001600160401b0381118282101715620012a057620012a062001234565b604052919050565b60006001600160401b03831115620012c457620012c462001234565b620012d9601f8401601f191660200162001275565b9050828152838383011115620012ee57600080fd5b828260208301376000602084830101529392505050565b600080600080608085870312156200131c57600080fd5b6200132785620011f7565b93506200133760208601620011f7565b92506040850135915060608501356001600160401b038111156200135a57600080fd5b8501601f810187136200136c57600080fd5b6200137d87823560208401620012a8565b91505092959194509250565b600080604083850312156200139d57600080fd5b823591506020808401356001600160401b0380821115620013bd57600080fd5b818601915086601f830112620013d257600080fd5b813581811115620013e757620013e762001234565b8060051b9150620013fa84830162001275565b81815291830184019184810190898411156200141557600080fd5b938501935b8385101562001435578435825293850193908501906200141a565b8096505050505050509250929050565b60005b838110156200146257818101518382015260200162001448565b8381111562001472576000848401525b50505050565b600081518084526200149281602086016020860162001445565b601f01601f19169290920160200192915050565b6020815260006200122d602083018462001478565b600060208284031215620014ce57600080fd5b81356001600160f81b0319811681146200122d57600080fd5b600082601f830112620014f957600080fd5b6200122d83833560208501620012a8565b600082601f8301126200151c57600080fd5b620015266200124a565b8060608401858111156200153957600080fd5b845b818110156200157a5780356001600160401b038111156200155c5760008081fd5b6200156a88828901620014e7565b855250602093840193016200153b565b509095945050505050565b6000806000806000806000610120888a031215620015a257600080fd5b873596506020808901356001600160401b0380821115620015c257600080fd5b620015d08c838d01620014e7565b985060408b0135915080821115620015e757600080fd5b620015f58c838d01620014e7565b975060608b013596508b609f8c01126200160e57600080fd5b620016186200124a565b91508160e08c018d8111156200162d57600080fd5b60808d015b818110156200164b578035855293850193850162001632565b50909650359250808311156200166057600080fd5b5050620016708a828b016200150a565b925050610100880135905092959891949750929550565b6001600160a01b0392831681529116602082015260400190565b600181811c90821680620016b657607f821691505b60208210811415620016d857634e487b7160e01b600052602260045260246000fd5b50919050565b634e487b7160e01b600052601160045260246000fd5b600060ff821660ff84168060ff03821115620017145762001714620016de565b019392505050565b600082821015620017315762001731620016de565b500390565b6000816000190483118215151615620017535762001753620016de565b500290565b600181815b80851115620017995781600019048211156200177d576200177d620016de565b808516156200178b57918102915b93841c93908002906200175d565b509250929050565b600082620017b25750600162001851565b81620017c15750600062001851565b8160018114620017da5760028114620017e55762001805565b600191505062001851565b60ff841115620017f957620017f9620016de565b50506001821b62001851565b5060208310610133831016604e8410600b84101617156200182a575081810a62001851565b62001836838362001758565b80600019048211156200184d576200184d620016de565b0290505b92915050565b60006200122d8383620017a1565b634e487b7160e01b600052601260045260246000fd5b6000826200188d576200188d62001865565b500490565b600060ff831680620018a857620018a862001865565b8060ff84160491505092915050565b600060ff821660ff84168160ff04811182151516156200184d576200184d620016de565b600060ff821660ff841680821015620018f857620018f8620016de565b90039392505050565b634e487b7160e01b600052603260045260246000fd5b600082198211156200192d576200192d620016de565b500190565b6000600019821415620019495762001949620016de565b5060010190565b61060f60f31b8152600082516200196f81600285016020870162001445565b9190910160020192915050565b6000602082840312156200198f57600080fd5b5051919050565b600082620019a857620019a862001865565b500690565b6000610100808352620019c38184018a62001478565b9050602083820381850152620019da828a62001478565b9150876040850152606084018760005b600381101562001a0957815183529183019190830190600101620019ea565b50505083820360c085015281606081018760005b600381101562001a4c57858303845262001a3983835162001478565b9385019392509084019060010162001a1d565b5050809450505050508260e0830152979650505050505050565b8054600090600181811c908083168062001a8157607f831692505b602080841082141562001aa457634e487b7160e01b600052602260045260246000fd5b81801562001abb576001811462001acd5762001afc565b60ff1986168952848901965062001afc565b60008881526020902060005b8681101562001af45781548b82015290850190830162001ad9565b505084890196505b50505050505092915050565b6b024a729a2a92a1024a72a27960a51b8152600062001b2b600c83018762001a66565b7f202875736572416464726573732c206e6674416464726573732c20766964656f81526b092885240ac8298aa8aa640560a31b6020820152602760f81b602c820152855162001b8281602d840160208a0162001445565b80820191505062272c2760e81b80602d830152855162001baa816030850160208a0162001445565b6030920191820152835162001bc781603384016020880162001445565b6227293b60e81b603392909101918201526036019695505050505050565b60018060a01b038416815282602082015260606040820152600062001c0e606083018462001478565b95945050505050565b6b024a729a2a92a1024a72a27960a51b8152600062001c3a600c83018762001a66565b7f202875736572416464726573732c206e6674416464726573732c20746f6b656e81526e092dcc8caf05240ac8298aa8aa6405608b1b6020820152602760f81b602f820152855162001c94816030840160208a0162001445565b80820191505062272c2760e81b806030830152855162001cbc816033850160208a0162001445565b6033920191820152835162001cd981603684016020880162001445565b6227293b60e81b60369290910191820152603901969550505050505056fe60a06040523480156200001157600080fd5b5060405162001f8138038062001f8183398101604081905262000034916200045b565b8551869086906200004d90600090602085019062000131565b5080516200006390600190602084019062000131565b505050620000806200007a620000db60201b60201c565b620000df565b60646200008f85605a62000550565b6200009b91906200057e565b620000a557600080fd5b6080849052600c819055620000be600b846003620001c0565b50620000ce600a836003620001fd565b50505050505050620005de565b3390565b600780546001600160a01b038381166001600160a01b0319831681179093556040519116919082907f8be0079c531659141344cd1fd0a4f28419497f9722a3daafe3b4186f6b6457e090600090a35050565b8280546200013f90620005a1565b90600052602060002090601f016020900481019282620001635760008555620001ae565b82601f106200017e57805160ff1916838001178555620001ae565b82800160010185558215620001ae579182015b82811115620001ae57825182559160200191906001019062000191565b50620001bc9291506200025d565b5090565b828054828255906000526020600020908101928215620001ae5791602002820182811115620001ae57825182559160200191906001019062000191565b8280548282559060005260206000209081019282156200024f579160200282015b828111156200024f57825180516200023e91849160209091019062000131565b50916020019190600101906200021e565b50620001bc92915062000274565b5b80821115620001bc57600081556001016200025e565b80821115620001bc5760006200028b828262000295565b5060010162000274565b508054620002a390620005a1565b6000825580601f10620002b4575050565b601f016020900490600052602060002090810190620002d491906200025d565b50565b634e487b7160e01b600052604160045260246000fd5b604051606081016001600160401b0381118282101715620003125762000312620002d7565b60405290565b604051601f8201601f191681016001600160401b0381118282101715620003435762000343620002d7565b604052919050565b600082601f8301126200035d57600080fd5b81516001600160401b03811115620003795762000379620002d7565b60206200038f601f8301601f1916820162000318565b8281528582848701011115620003a457600080fd5b60005b83811015620003c4578581018301518282018401528201620003a7565b83811115620003d65760008385840101525b5095945050505050565b600082601f830112620003f257600080fd5b620003fc620002ed565b8060608401858111156200040f57600080fd5b845b81811015620004505780516001600160401b03811115620004325760008081fd5b62000440888289016200034b565b8552506020938401930162000411565b509095945050505050565b60008060008060008061010087890312156200047657600080fd5b86516001600160401b03808211156200048e57600080fd5b6200049c8a838b016200034b565b9750602091508189015181811115620004b457600080fd5b620004c28b828c016200034b565b9750506040890151955089607f8a0112620004dc57600080fd5b620004e6620002ed565b8060c08b018c811115620004f957600080fd5b60608c015b81811015620005175780518452928501928501620004fe565b5051909650925050808211156200052d57600080fd5b506200053c89828a01620003e0565b92505060e087015190509295509295509295565b60008160001904831182151516156200057957634e487b7160e01b600052601160045260246000fd5b500290565b6000826200059c57634e487b7160e01b600052601260045260246000fd5b500490565b600181811c90821680620005b657607f821691505b60208210811415620005d857634e487b7160e01b600052602260045260246000fd5b50919050565b608051611987620005fa600039600061023101526119876000f3fe608060405234801561001057600080fd5b506004361061011d5760003560e01c806301ffc9a7146101225780630684908f1461014a57806306fdde031461016a578063081812fc14610172578063095ea7b31461019d57806323b872dd146101b257806340c10f19146101c557806342842e0e146101e65780636352211e146101f95780636e02007d1461020c57806370a0823114610214578063715018a6146102275780637a5caab31461022f5780638da5cb5b146102555780639336b5dd1461025d57806395d89b41146102655780639fd4474b1461026d578063a22cb46514610280578063b88d4fde14610293578063c87b56dd146102a6578063e89e106a146102b9578063e985e9c5146102c2578063f2fde38b146102d5575b600080fd5b610135610130366004611449565b6102e8565b60405190151581526020015b60405180910390f35b61015d610158366004611466565b61033a565b60405161014191906114d7565b61015d6103e9565b610185610180366004611466565b61047b565b6040516001600160a01b039091168152602001610141565b6101b06101ab366004611506565b6104a2565b005b6101b06101c0366004611530565b6105bd565b6101d86101d3366004611506565b6105ee565b604051908152602001610141565b6101b06101f4366004611530565b6107be565b610185610207366004611466565b6107d9565b6008546101d8565b6101d861022236600461156c565b61080e565b6101b0610894565b7f00000000000000000000000000000000000000000000000000000000000000006101d8565b6101856108a8565b600c546101d8565b61015d6108b7565b6101d861027b366004611466565b6108c6565b6101b061028e366004611587565b6108ed565b6101b06102a13660046115d9565b6108fc565b61015d6102b4366004611466565b610934565b6101d860095481565b6101356102d03660046116b4565b610a45565b6101b06102e336600461156c565b610a73565b60006001600160e01b031982166380ac58cd60e01b148061031957506001600160e01b03198216635b5e139f60e01b145b8061033457506301ffc9a760e01b6001600160e01b03198316145b92915050565b6060600a828154811061034f5761034f6116e7565b906000526020600020018054610364906116fd565b80601f0160208091040260200160405190810160405280929190818152602001828054610390906116fd565b80156103dd5780601f106103b2576101008083540402835291602001916103dd565b820191906000526020600020905b8154815290600101906020018083116103c057829003601f168201915b50505050509050919050565b6060600080546103f8906116fd565b80601f0160208091040260200160405190810160405280929190818152602001828054610424906116fd565b80156104715780601f1061044657610100808354040283529160200191610471565b820191906000526020600020905b81548152906001019060200180831161045457829003601f168201915b5050505050905090565b600061048682610aec565b506000908152600460205260409020546001600160a01b031690565b60006104ad826107d9565b9050806001600160a01b0316836001600160a01b031614156105205760405162461bcd60e51b815260206004820152602160248201527f4552433732313a20617070726f76616c20746f2063757272656e74206f776e656044820152603960f91b60648201526084015b60405180910390fd5b336001600160a01b038216148061053c575061053c8133610a45565b6105ae5760405162461bcd60e51b815260206004820152603e60248201527f4552433732313a20617070726f76652063616c6c6572206973206e6f7420746f60448201527f6b656e206f776e6572206e6f7220617070726f76656420666f7220616c6c00006064820152608401610517565b6105b88383610b11565b505050565b6105c73382610b7f565b6105e35760405162461bcd60e51b815260040161051790611738565b6105b8838383610bdd565b60006105f8610d67565b6001600c600082825461060b919061179c565b909155505060085461061e8160016117b3565b600855600061062e6064856117e1565b90506000600b600081548110610646576106466116e7565b9060005260206000200154821015610660575060006106bb565b600b600181548110610674576106746116e7565b9060005260206000200154600b600081548110610693576106936116e7565b90600052602060002001546106a891906117b3565b8210156106b7575060016106bb565b5060025b6106c58684610dc6565b61077483600a83815481106106dc576106dc6116e7565b9060005260206000200180546106f1906116fd565b80601f016020809104026020016040519081016040528092919081815260200182805461071d906116fd565b801561076a5780601f1061073f5761010080835404028352916020019161076a565b820191906000526020600020905b81548152906001019060200180831161074d57829003601f168201915b5050505050610de0565b604080518281526001600160a01b03881660208201527f769eff512f395b679667e0062a0e31dad5d22dbc7e6b87f16c3de7e85e663460910160405180910390a195945050505050565b6105b8838383604051806020016040528060008152506108fc565b6000818152600260205260408120546001600160a01b0316806103345760405162461bcd60e51b8152600401610517906117f5565b60006001600160a01b0382166108785760405162461bcd60e51b815260206004820152602960248201527f4552433732313a2061646472657373207a65726f206973206e6f7420612076616044820152683634b21037bbb732b960b91b6064820152608401610517565b506001600160a01b031660009081526003602052604090205490565b61089c610d67565b6108a66000610e6b565b565b6007546001600160a01b031690565b6060600180546103f8906116fd565b6000600b82815481106108db576108db6116e7565b90600052602060002001549050919050565b6108f8338383610ebd565b5050565b6109063383610b7f565b6109225760405162461bcd60e51b815260040161051790611738565b61092e84848484610f88565b50505050565b606061093f82610aec565b60008281526006602052604081208054610958906116fd565b80601f0160208091040260200160405190810160405280929190818152602001828054610984906116fd565b80156109d15780601f106109a6576101008083540402835291602001916109d1565b820191906000526020600020905b8154815290600101906020018083116109b457829003601f168201915b5050505050905060006109ef60408051602081019091526000815290565b9050805160001415610a02575092915050565b815115610a34578082604051602001610a1c929190611827565b60405160208183030381529060405292505050919050565b610a3d84610fbb565b949350505050565b6001600160a01b03918216600090815260056020908152604080832093909416825291909152205460ff1690565b610a7b610d67565b6001600160a01b038116610ae05760405162461bcd60e51b815260206004820152602660248201527f4f776e61626c653a206e6577206f776e657220697320746865207a65726f206160448201526564647265737360d01b6064820152608401610517565b610ae981610e6b565b50565b610af58161102f565b610ae95760405162461bcd60e51b8152600401610517906117f5565b600081815260046020526040902080546001600160a01b0319166001600160a01b0384169081179091558190610b46826107d9565b6001600160a01b03167f8c5be1e5ebec7d5bd14f71427d1e84f3dd0314c0f7b2291e5b200ac8c7c3b92560405160405180910390a45050565b600080610b8b836107d9565b9050806001600160a01b0316846001600160a01b03161480610bb25750610bb28185610a45565b80610a3d5750836001600160a01b0316610bcb8461047b565b6001600160a01b031614949350505050565b826001600160a01b0316610bf0826107d9565b6001600160a01b031614610c545760405162461bcd60e51b815260206004820152602560248201527f4552433732313a207472616e736665722066726f6d20696e636f72726563742060448201526437bbb732b960d91b6064820152608401610517565b6001600160a01b038216610cb65760405162461bcd60e51b8152602060048201526024808201527f4552433732313a207472616e7366657220746f20746865207a65726f206164646044820152637265737360e01b6064820152608401610517565b610cc1600082610b11565b6001600160a01b0383166000908152600360205260408120805460019290610cea90849061179c565b90915550506001600160a01b0382166000908152600360205260408120805460019290610d189084906117b3565b909155505060008181526002602052604080822080546001600160a01b0319166001600160a01b03868116918217909255915184939187169160008051602061193283398151915291a4505050565b33610d706108a8565b6001600160a01b0316146108a65760405162461bcd60e51b815260206004820181905260248201527f4f776e61626c653a2063616c6c6572206973206e6f7420746865206f776e65726044820152606401610517565b6108f882826040518060200160405280600081525061104c565b610de98261102f565b610e4c5760405162461bcd60e51b815260206004820152602e60248201527f45524337323155524953746f726167653a2055524920736574206f66206e6f6e60448201526d32bc34b9ba32b73a103a37b5b2b760911b6064820152608401610517565b600082815260066020908152604090912082516105b89284019061139a565b600780546001600160a01b038381166001600160a01b0319831681179093556040519116919082907f8be0079c531659141344cd1fd0a4f28419497f9722a3daafe3b4186f6b6457e090600090a35050565b816001600160a01b0316836001600160a01b03161415610f1b5760405162461bcd60e51b815260206004820152601960248201527822a9219b99189d1030b8383937bb32903a379031b0b63632b960391b6044820152606401610517565b6001600160a01b03838116600081815260056020908152604080832094871680845294825291829020805460ff191686151590811790915591519182527f17307eab39ab6107e8899845ad3d59bd9653f200f220920489ca2b5937696c31910160405180910390a3505050565b610f93848484610bdd565b610f9f8484848461107f565b61092e5760405162461bcd60e51b815260040161051790611856565b6060610fc682610aec565b6000610fdd60408051602081019091526000815290565b90506000815111610ffd5760405180602001604052806000815250611028565b806110078461117d565b604051602001611018929190611827565b6040516020818303038152906040525b9392505050565b6000908152600260205260409020546001600160a01b0316151590565b611056838361127a565b611063600084848461107f565b6105b85760405162461bcd60e51b815260040161051790611856565b60006001600160a01b0384163b1561117257604051630a85bd0160e11b81526001600160a01b0385169063150b7a02906110c39033908990889088906004016118a8565b6020604051808303816000875af19250505080156110fe575060408051601f3d908101601f191682019092526110fb918101906118e5565b60015b611158573d80801561112c576040519150601f19603f3d011682016040523d82523d6000602084013e611131565b606091505b5080516111505760405162461bcd60e51b815260040161051790611856565b805181602001fd5b6001600160e01b031916630a85bd0160e11b149050610a3d565b506001949350505050565b6060816111a15750506040805180820190915260018152600360fc1b602082015290565b8160005b81156111cb57806111b581611902565b91506111c49050600a8361191d565b91506111a5565b6000816001600160401b038111156111e5576111e56115c3565b6040519080825280601f01601f19166020018201604052801561120f576020820181803683370190505b5090505b8415610a3d5761122460018361179c565b9150611231600a866117e1565b61123c9060306117b3565b60f81b818381518110611251576112516116e7565b60200101906001600160f81b031916908160001a905350611273600a8661191d565b9450611213565b6001600160a01b0382166112d05760405162461bcd60e51b815260206004820181905260248201527f4552433732313a206d696e7420746f20746865207a65726f20616464726573736044820152606401610517565b6112d98161102f565b156113255760405162461bcd60e51b815260206004820152601c60248201527b115490cdcc8c4e881d1bdad95b88185b1c9958591e481b5a5b9d195960221b6044820152606401610517565b6001600160a01b038216600090815260036020526040812080546001929061134e9084906117b3565b909155505060008181526002602052604080822080546001600160a01b0319166001600160a01b0386169081179091559051839290600080516020611932833981519152908290a45050565b8280546113a6906116fd565b90600052602060002090601f0160209004810192826113c8576000855561140e565b82601f106113e157805160ff191683800117855561140e565b8280016001018555821561140e579182015b8281111561140e5782518255916020019190600101906113f3565b5061141a92915061141e565b5090565b5b8082111561141a576000815560010161141f565b6001600160e01b031981168114610ae957600080fd5b60006020828403121561145b57600080fd5b813561102881611433565b60006020828403121561147857600080fd5b5035919050565b60005b8381101561149a578181015183820152602001611482565b8381111561092e5750506000910152565b600081518084526114c381602086016020860161147f565b601f01601f19169290920160200192915050565b60208152600061102860208301846114ab565b80356001600160a01b038116811461150157600080fd5b919050565b6000806040838503121561151957600080fd5b611522836114ea565b946020939093013593505050565b60008060006060848603121561154557600080fd5b61154e846114ea565b925061155c602085016114ea565b9150604084013590509250925092565b60006020828403121561157e57600080fd5b611028826114ea565b6000806040838503121561159a57600080fd5b6115a3836114ea565b9150602083013580151581146115b857600080fd5b809150509250929050565b634e487b7160e01b600052604160045260246000fd5b600080600080608085870312156115ef57600080fd5b6115f8856114ea565b9350611606602086016114ea565b92506040850135915060608501356001600160401b038082111561162957600080fd5b818701915087601f83011261163d57600080fd5b81358181111561164f5761164f6115c3565b604051601f8201601f19908116603f01168101908382118183101715611677576116776115c3565b816040528281528a602084870101111561169057600080fd5b82602086016020830137600060208483010152809550505050505092959194509250565b600080604083850312156116c757600080fd5b6116d0836114ea565b91506116de602084016114ea565b90509250929050565b634e487b7160e01b600052603260045260246000fd5b600181811c9082168061171157607f821691505b6020821081141561173257634e487b7160e01b600052602260045260246000fd5b50919050565b6020808252602e908201527f4552433732313a2063616c6c6572206973206e6f7420746f6b656e206f776e6560408201526d1c881b9bdc88185c1c1c9bdd995960921b606082015260800190565b634e487b7160e01b600052601160045260246000fd5b6000828210156117ae576117ae611786565b500390565b600082198211156117c6576117c6611786565b500190565b634e487b7160e01b600052601260045260246000fd5b6000826117f0576117f06117cb565b500690565b602080825260189082015277115490cdcc8c4e881a5b9d985b1a59081d1bdad95b88125160421b604082015260600190565b6000835161183981846020880161147f565b83519083019061184d81836020880161147f565b01949350505050565b60208082526032908201527f4552433732313a207472616e7366657220746f206e6f6e20455243373231526560408201527131b2b4bb32b91034b6b83632b6b2b73a32b960711b606082015260800190565b6001600160a01b03858116825284166020820152604081018390526080606082018190526000906118db908301846114ab565b9695505050505050565b6000602082840312156118f757600080fd5b815161102881611433565b600060001982141561191657611916611786565b5060010190565b60008261192c5761192c6117cb565b50049056feddf252ad1be2c89b69c2b068fc378daa952ba7f163c4a11628f55a4df523b3efa26469706673582212208738547f7b819bfd1fd5cd1d7a27f59488551d9d5599767dc2c7cb09b277359e64736f6c634300080c0033a2646970667358221220b87ba827ab32df51d4dff22c868b6f8fa21a8a53a79621f2aece6c37f83db4f564736f6c634300080c00332028696420696e7465676572207072696d617279206b65792c2075736572416464726573732074657874204e4f54204e554c4c2c206e66744164647265737320",
  "devdoc": {
    "kind": "dev",
    "methods": {
      "onERC721Received(address,address,uint256,bytes)": {
        "details": "See {IERC721Receiver-onERC721Received}. Always returns `IERC721Receiver.onERC721Received.selector`."
      },
      "owner()": {
        "details": "Returns the address of the current owner."
      },
      "renounceOwnership()": {
        "details": "Leaves the contract without owner. It will not be possible to call `onlyOwner` functions anymore. Can only be called by the current owner. NOTE: Renouncing ownership will leave the contract without an owner, thereby removing any functionality that is only available to the owner."
      },
      "transferOwnership(address)": {
        "details": "Transfers ownership of the contract to a new account (`newOwner`). Can only be called by the current owner."
      }
    },
    "version": 1
  },
  "userdoc": {
    "kind": "user",
    "methods": {},
    "version": 1
  },
  "storageLayout": {
    "storage": [
      {
        "astId": 3083,
        "contract": "contracts/SosolNFTMarketplace.sol:SosolNFTMarketplace",
        "label": "_marketTableId",
        "offset": 0,
        "slot": "0",
        "type": "t_uint256"
      },
      {
        "astId": 3085,
        "contract": "contracts/SosolNFTMarketplace.sol:SosolNFTMarketplace",
        "label": "_marketTableName",
        "offset": 0,
        "slot": "1",
        "type": "t_string_storage"
      },
      {
        "astId": 3087,
        "contract": "contracts/SosolNFTMarketplace.sol:SosolNFTMarketplace",
        "label": "_nftTableId",
        "offset": 0,
        "slot": "2",
        "type": "t_uint256"
      },
      {
        "astId": 3089,
        "contract": "contracts/SosolNFTMarketplace.sol:SosolNFTMarketplace",
        "label": "_nftTableName",
        "offset": 0,
        "slot": "3",
        "type": "t_string_storage"
      },
      {
        "astId": 3092,
        "contract": "contracts/SosolNFTMarketplace.sol:SosolNFTMarketplace",
        "label": "_prefix",
        "offset": 0,
        "slot": "4",
        "type": "t_string_storage"
      },
      {
        "astId": 3095,
        "contract": "contracts/SosolNFTMarketplace.sol:SosolNFTMarketplace",
        "label": "_tableland",
        "offset": 0,
        "slot": "5",
        "type": "t_contract(ITablelandTables)2159"
      },
      {
        "astId": 154,
        "contract": "contracts/SosolNFTMarketplace.sol:SosolNFTMarketplace",
        "label": "_owner",
        "offset": 0,
        "slot": "6",
        "type": "t_address"
      },
      {
        "astId": 2536,
        "contract": "contracts/SosolNFTMarketplace.sol:SosolNFTMarketplace",
        "label": "nftToOwner",
        "offset": 0,
        "slot": "7",
        "type": "t_mapping(t_address,t_address)"
      },
      {
        "astId": 2541,
        "contract": "contracts/SosolNFTMarketplace.sol:SosolNFTMarketplace",
        "label": "s_requestIdToNftRequest",
        "offset": 0,
        "slot": "8",
        "type": "t_mapping(t_uint256,t_struct(NftRequest)2514_storage)"
      },
      {
        "astId": 2545,
        "contract": "contracts/SosolNFTMarketplace.sol:SosolNFTMarketplace",
        "label": "ownerToBalance",
        "offset": 0,
        "slot": "9",
        "type": "t_mapping(t_address,t_uint256)"
      },
      {
        "astId": 2549,
        "contract": "contracts/SosolNFTMarketplace.sol:SosolNFTMarketplace",
        "label": "nftToTotalToken",
        "offset": 0,
        "slot": "10",
        "type": "t_mapping(t_address,t_uint256)"
      },
      {
        "astId": 2551,
        "contract": "contracts/SosolNFTMarketplace.sol:SosolNFTMarketplace",
        "label": "s_nftCreatePrice",
        "offset": 0,
        "slot": "11",
        "type": "t_uint256"
      }
    ],
    "types": {
      "t_address": {
        "encoding": "inplace",
        "label": "address",
        "numberOfBytes": "20"
      },
      "t_contract(ITablelandTables)2159": {
        "encoding": "inplace",
        "label": "contract ITablelandTables",
        "numberOfBytes": "20"
      },
      "t_mapping(t_address,t_address)": {
        "encoding": "mapping",
        "key": "t_address",
        "label": "mapping(address => address)",
        "numberOfBytes": "32",
        "value": "t_address"
      },
      "t_mapping(t_address,t_uint256)": {
        "encoding": "mapping",
        "key": "t_address",
        "label": "mapping(address => uint256)",
        "numberOfBytes": "32",
        "value": "t_uint256"
      },
      "t_mapping(t_uint256,t_struct(NftRequest)2514_storage)": {
        "encoding": "mapping",
        "key": "t_uint256",
        "label": "mapping(uint256 => struct SosolNFTHandle.NftRequest)",
        "numberOfBytes": "32",
        "value": "t_struct(NftRequest)2514_storage"
      },
      "t_string_storage": {
        "encoding": "bytes",
        "label": "string",
        "numberOfBytes": "32"
      },
      "t_struct(NftRequest)2514_storage": {
        "encoding": "inplace",
        "label": "struct SosolNFTHandle.NftRequest",
        "members": [
          {
            "astId": 2511,
            "contract": "contracts/SosolNFTMarketplace.sol:SosolNFTMarketplace",
            "label": "requester",
            "offset": 0,
            "slot": "0",
            "type": "t_address"
          },
          {
            "astId": 2513,
            "contract": "contracts/SosolNFTMarketplace.sol:SosolNFTMarketplace",
            "label": "nftContract",
            "offset": 0,
            "slot": "1",
            "type": "t_address"
          }
        ],
        "numberOfBytes": "64"
      },
      "t_uint256": {
        "encoding": "inplace",
        "label": "uint256",
        "numberOfBytes": "32"
      }
    }
  }
}