{
  "address": "0x01986e10943cAf01aadeCdddE4AD2d9c4B523ffF",
  "abi": [
    {
      "inputs": [
        {
          "internalType": "address",
          "name": "registry",
          "type": "address"
        }
      ],
      "stateMutability": "nonpayable",
      "type": "constructor"
    },
    {
      "inputs": [
        {
          "internalType": "address",
          "name": "x",
          "type": "address"
        }
      ],
      "name": "_addressToString",
      "outputs": [
        {
          "internalType": "string",
          "name": "",
          "type": "string"
        }
      ],
      "stateMutability": "pure",
      "type": "function"
    },
    {
      "inputs": [
        {
          "internalType": "bytes1",
          "name": "b",
          "type": "bytes1"
        }
      ],
      "name": "char",
      "outputs": [
        {
          "internalType": "bytes1",
          "name": "c",
          "type": "bytes1"
        }
      ],
      "stateMutability": "pure",
      "type": "function"
    },
    {
      "inputs": [],
      "name": "getTableId",
      "outputs": [
        {
          "internalType": "uint256",
          "name": "",
          "type": "uint256"
        }
      ],
      "stateMutability": "view",
      "type": "function"
    },
    {
      "inputs": [],
      "name": "getTableName",
      "outputs": [
        {
          "internalType": "string",
          "name": "",
          "type": "string"
        }
      ],
      "stateMutability": "view",
      "type": "function"
    },
    {
      "inputs": [
        {
          "internalType": "address",
          "name": "",
          "type": "address"
        },
        {
          "internalType": "address",
          "name": "",
          "type": "address"
        },
        {
          "internalType": "uint256",
          "name": "",
          "type": "uint256"
        },
        {
          "internalType": "bytes",
          "name": "",
          "type": "bytes"
        }
      ],
      "name": "onERC721Received",
      "outputs": [
        {
          "internalType": "bytes4",
          "name": "",
          "type": "bytes4"
        }
      ],
      "stateMutability": "nonpayable",
      "type": "function"
    },
    {
      "inputs": [
        {
          "internalType": "string",
          "name": "title",
          "type": "string"
        },
        {
          "internalType": "string",
          "name": "thumbnailCid",
          "type": "string"
        },
        {
          "internalType": "string",
          "name": "finalCid",
          "type": "string"
        }
      ],
      "name": "upload",
      "outputs": [],
      "stateMutability": "nonpayable",
      "type": "function"
    }
  ],
  "transactionHash": "0x2def9151467d9fba873c3d0f5b5cefdb462e77695866af69c82d993f70bb7cc0",
  "args": [
    "0x4b48841d4b32c4650e4abc117a03fe8b51f38f68"
  ],
  "numDeployments": 1,
  "solcInputHash": "ee1db10d854d37d4921845e0b6158827",
  "bytecode": "0x60c06040526006608081905265736f736f6c3360d01b60a0908152620000299160029190620002b3565b503480156200003757600080fd5b506040516200138f3803806200138f8339810160408190526200005a9162000359565b600380546001600160a01b0319166001600160a01b038316908117909155633a9151b0306002620000974662000196602090811b6200043b17901c565b604051602001620000aa9291906200049d565b6040516020818303038152906040526040518363ffffffff1660e01b8152600401620000d892919062000585565b6020604051808303816000875af1158015620000f8573d6000803e3d6000fd5b505050506040513d601f19601f820116820180604052508101906200011e9190620005c9565b60008190555060026200013c466200019660201b6200043b1760201c565b620001546000546200019660201b6200043b1760201c565b6040516020016200016893929190620005e3565b604051602081830303815290604052600190805190602001906200018e929190620002b3565b505062000711565b606081620001bb5750506040805180820190915260018152600360fc1b602082015290565b8160005b8115620001eb5780620001d2816200064e565b9150620001e39050600a8362000682565b9150620001bf565b6000816001600160401b0381111562000208576200020862000699565b6040519080825280601f01601f19166020018201604052801562000233576020820181803683370190505b5090505b8415620002ab576200024b600183620006af565b91506200025a600a86620006c9565b62000267906030620006e0565b60f81b8183815181106200027f576200027f620006fb565b60200101906001600160f81b031916908160001a905350620002a3600a8662000682565b945062000237565b949350505050565b828054620002c1906200038b565b90600052602060002090601f016020900481019282620002e5576000855562000330565b82601f106200030057805160ff191683800117855562000330565b8280016001018555821562000330579182015b828111156200033057825182559160200191906001019062000313565b506200033e92915062000342565b5090565b5b808211156200033e576000815560010162000343565b6000602082840312156200036c57600080fd5b81516001600160a01b03811681146200038457600080fd5b9392505050565b600181811c90821680620003a057607f821691505b60208210811415620003c257634e487b7160e01b600052602260045260246000fd5b50919050565b8054600090600181811c9080831680620003e357607f831692505b60208084108214156200040657634e487b7160e01b600052602260045260246000fd5b8180156200041d57600181146200042f576200045e565b60ff198616895284890196506200045e565b60008881526020902060005b86811015620004565781548b8201529085019083016200043b565b505084890196505b50505050505092915050565b60005b83811015620004875781810151838201526020016200046d565b8381111562000497576000848401525b50505050565b6c021a922a0aa22902a20a126229609d1b81526000620004c1600d830185620003c8565b605f60f81b81528351620004dd8160018401602088016200046a565b7f2028696420696e7465676572207072696d617279206b65792c20757365724164600192909101918201527f64726573732074657874204e4f54204e554c4c2c207469746c6520746578742060218201527f4e4f54204e554c4c2c207468756d626e61696c4369642074657874204e4f542060418201527f4e554c4c2c2066696e616c4369642074657874204e4f54204e554c4c293b00006061820152607f01949350505050565b60018060a01b03831681526040602082015260008251806040840152620005b48160608501602087016200046a565b601f01601f1916919091016060019392505050565b600060208284031215620005dc57600080fd5b5051919050565b6000620005f18286620003c8565b605f60f81b80825285516200060e816001850160208a016200046a565b600192019182015283516200062b8160028401602088016200046a565b0160020195945050505050565b634e487b7160e01b600052601160045260246000fd5b600060001982141562000665576200066562000638565b5060010190565b634e487b7160e01b600052601260045260246000fd5b6000826200069457620006946200066c565b500490565b634e487b7160e01b600052604160045260246000fd5b600082821015620006c457620006c462000638565b500390565b600082620006db57620006db6200066c565b500690565b60008219821115620006f657620006f662000638565b500190565b634e487b7160e01b600052603260045260246000fd5b610c6e80620007216000396000f3fe608060405234801561001057600080fd5b50600436106100625760003560e01c8063150b7a02146100675780635d5a33a2146100a357806369f9ad2f146100b857806388e4f1cb146100e457806388e9a48a146100f55780638dee819214610108575b600080fd5b6100856100753660046105e2565b630a85bd0160e11b949350505050565b6040516001600160e01b031990911681526020015b60405180910390f35b6100ab61011d565b60405161009a91906106b9565b6100cb6100c63660046106d3565b6101af565b6040516001600160f81b0319909116815260200161009a565b60005460405190815260200161009a565b6100ab6101033660046106fd565b6101ea565b61011b610116366004610738565b610353565b005b60606001805461012c906107bf565b80601f0160208091040260200160405190810160405280929190818152602001828054610158906107bf565b80156101a55780601f1061017a576101008083540402835291602001916101a5565b820191906000526020600020905b81548152906001019060200180831161018857829003601f168201915b5050505050905090565b6000600a60f883901c10156101d6576101cd60f883901c6030610810565b60f81b92915050565b6101cd60f883901c6057610810565b919050565b60408051602880825260608281019093526000919060208201818036833701905050905060005b601481101561032a576000610227826013610835565b61023290600861084c565b61023d906002610951565b610250906001600160a01b038716610973565b60f81b9050600060108260f81c6102679190610987565b60f81b905060008160f81c601061027e91906109a9565b8360f81c61028c91906109ca565b60f81b905061029a826101af565b856102a686600261084c565b815181106102b6576102b66109ed565b60200101906001600160f81b031916908160001a9053506102d6816101af565b856102e286600261084c565b6102ed906001610a03565b815181106102fd576102fd6109ed565b60200101906001600160f81b031916908160001a905350505050808061032290610a1b565b915050610211565b508060405160200161033c9190610a52565b604051602081830303815290604052915050919050565b60005461039b5760405162461bcd60e51b81526020600482015260126024820152715461626c65206e6f7420637265617465642160701b604482015260640160405180910390fd5b6003546000546001600160a01b039091169063eaf5d04e90309060016103c0336101ea565b8888886040516020016103d7959493929190610a87565b6040516020818303038152906040526040518463ffffffff1660e01b815260040161040493929190610bf4565b600060405180830381600087803b15801561041e57600080fd5b505af1158015610432573d6000803e3d6000fd5b50505050505050565b60608161045f5750506040805180820190915260018152600360fc1b602082015290565b8160005b8115610489578061047381610a1b565b91506104829050600a83610973565b9150610463565b6000816001600160401b038111156104a3576104a3610557565b6040519080825280601f01601f1916602001820160405280156104cd576020820181803683370190505b5090505b8415610538576104e2600183610835565b91506104ef600a86610c24565b6104fa906030610a03565b60f81b81838151811061050f5761050f6109ed565b60200101906001600160f81b031916908160001a905350610531600a86610973565b94506104d1565b949350505050565b80356001600160a01b03811681146101e557600080fd5b634e487b7160e01b600052604160045260246000fd5b60006001600160401b038084111561058757610587610557565b604051601f8501601f19908116603f011681019082821181831017156105af576105af610557565b816040528093508581528686860111156105c857600080fd5b858560208301376000602087830101525050509392505050565b600080600080608085870312156105f857600080fd5b61060185610540565b935061060f60208601610540565b92506040850135915060608501356001600160401b0381111561063157600080fd5b8501601f8101871361064257600080fd5b6106518782356020840161056d565b91505092959194509250565b60005b83811015610678578181015183820152602001610660565b83811115610687576000848401525b50505050565b600081518084526106a581602086016020860161065d565b601f01601f19169290920160200192915050565b6020815260006106cc602083018461068d565b9392505050565b6000602082840312156106e557600080fd5b81356001600160f81b0319811681146106cc57600080fd5b60006020828403121561070f57600080fd5b6106cc82610540565b600082601f83011261072957600080fd5b6106cc8383356020850161056d565b60008060006060848603121561074d57600080fd5b83356001600160401b038082111561076457600080fd5b61077087838801610718565b9450602086013591508082111561078657600080fd5b61079287838801610718565b935060408601359150808211156107a857600080fd5b506107b586828701610718565b9150509250925092565b600181811c908216806107d357607f821691505b602082108114156107f457634e487b7160e01b600052602260045260246000fd5b50919050565b634e487b7160e01b600052601160045260246000fd5b600060ff821660ff84168060ff0382111561082d5761082d6107fa565b019392505050565b600082821015610847576108476107fa565b500390565b6000816000190483118215151615610866576108666107fa565b500290565b600181815b808511156108a657816000190482111561088c5761088c6107fa565b8085161561089957918102915b93841c9390800290610870565b509250929050565b6000826108bd5750600161094b565b816108ca5750600061094b565b81600181146108e057600281146108ea57610906565b600191505061094b565b60ff8411156108fb576108fb6107fa565b50506001821b61094b565b5060208310610133831016604e8410600b8410161715610929575081810a61094b565b610933838361086b565b8060001904821115610947576109476107fa565b0290505b92915050565b60006106cc83836108ae565b634e487b7160e01b600052601260045260246000fd5b6000826109825761098261095d565b500490565b600060ff83168061099a5761099a61095d565b8060ff84160491505092915050565b600060ff821660ff84168160ff0481118215151615610947576109476107fa565b600060ff821660ff8416808210156109e4576109e46107fa565b90039392505050565b634e487b7160e01b600052603260045260246000fd5b60008219821115610a1657610a166107fa565b500190565b6000600019821415610a2f57610a2f6107fa565b5060010190565b60008151610a4881856020860161065d565b9290920192915050565b61060f60f31b815260008251610a6f81600285016020870161065d565b9190910160020192915050565b62272c2760e81b9052565b6b024a729a2a92a1024a72a27960a51b81526000600c6000885481600182811c915080831680610ab857607f831692505b6020808410821415610ad857634e487b7160e01b86526022600452602486fd5b818015610aec5760018114610b0157610b32565b60ff1986168a890152848a0188019650610b32565b60008f81526020902060005b86811015610b285781548c82018b0152908501908301610b0d565b505087858b010196505b50507f202875736572416464726573732c207469746c652c207468756d626e61696c43855250750d2c85840ccd2dcc2d886d2c85240ac8298aa8aa640560531b602085015260368401602760f81b81529450610b908186018c610a36565b945050505050610b9f81610a7c565b610bac6003820187610a36565b9050610bb781610a7c565b610bc46003820186610a36565b9050610bcf81610a7c565b610bdc6003820185610a36565b6227293b60e81b815260030198975050505050505050565b60018060a01b0384168152826020820152606060408201526000610c1b606083018461068d565b95945050505050565b600082610c3357610c3361095d565b50069056fea26469706673582212202aad2a1f2a169ab1c1dd165bf165928f696f35c5d8b830ae3fb00ce665259fe764736f6c634300080c0033",
  "devdoc": {
    "kind": "dev",
    "methods": {
      "onERC721Received(address,address,uint256,bytes)": {
        "details": "See {IERC721Receiver-onERC721Received}. Always returns `IERC721Receiver.onERC721Received.selector`."
      }
    },
    "version": 1
  },
  "userdoc": {
    "kind": "user",
    "methods": {},
    "version": 1
  },
  "storageLayout": {
    "storage": [
      {
        "astId": 3258,
        "contract": "contracts/SosolVideos.sol:SosolVideos",
        "label": "_tableId",
        "offset": 0,
        "slot": "0",
        "type": "t_uint256"
      },
      {
        "astId": 3260,
        "contract": "contracts/SosolVideos.sol:SosolVideos",
        "label": "_tableName",
        "offset": 0,
        "slot": "1",
        "type": "t_string_storage"
      },
      {
        "astId": 3263,
        "contract": "contracts/SosolVideos.sol:SosolVideos",
        "label": "_prefix",
        "offset": 0,
        "slot": "2",
        "type": "t_string_storage"
      },
      {
        "astId": 3266,
        "contract": "contracts/SosolVideos.sol:SosolVideos",
        "label": "_tableland",
        "offset": 0,
        "slot": "3",
        "type": "t_contract(ITablelandTables)2159"
      }
    ],
    "types": {
      "t_contract(ITablelandTables)2159": {
        "encoding": "inplace",
        "label": "contract ITablelandTables",
        "numberOfBytes": "20"
      },
      "t_string_storage": {
        "encoding": "bytes",
        "label": "string",
        "numberOfBytes": "32"
      },
      "t_uint256": {
        "encoding": "inplace",
        "label": "uint256",
        "numberOfBytes": "32"
      }
    }
  }
}